{
  "abi": [
    {
      "inputs": [
        {
          "internalType": "address",
          "name": "account",
          "type": "address"
        },
        {
          "internalType": "address",
          "name": "minter_",
          "type": "address"
        },
        {
          "internalType": "uint256",
          "name": "mintingAllowedAfter_",
          "type": "uint256"
        }
      ],
      "stateMutability": "nonpayable",
      "type": "constructor"
    },
    {
      "anonymous": false,
      "inputs": [
        {
          "indexed": true,
          "internalType": "address",
          "name": "owner",
          "type": "address"
        },
        {
          "indexed": true,
          "internalType": "address",
          "name": "spender",
          "type": "address"
        },
        {
          "indexed": false,
          "internalType": "uint256",
          "name": "amount",
          "type": "uint256"
        }
      ],
      "name": "Approval",
      "type": "event"
    },
    {
      "anonymous": false,
      "inputs": [
        {
          "indexed": true,
          "internalType": "address",
          "name": "delegator",
          "type": "address"
        },
        {
          "indexed": true,
          "internalType": "address",
          "name": "fromDelegate",
          "type": "address"
        },
        {
          "indexed": true,
          "internalType": "address",
          "name": "toDelegate",
          "type": "address"
        }
      ],
      "name": "DelegateChanged",
      "type": "event"
    },
    {
      "anonymous": false,
      "inputs": [
        {
          "indexed": true,
          "internalType": "address",
          "name": "delegate",
          "type": "address"
        },
        {
          "indexed": false,
          "internalType": "uint256",
          "name": "previousBalance",
          "type": "uint256"
        },
        {
          "indexed": false,
          "internalType": "uint256",
          "name": "newBalance",
          "type": "uint256"
        }
      ],
      "name": "DelegateVotesChanged",
      "type": "event"
    },
    {
      "anonymous": false,
      "inputs": [
        {
          "indexed": false,
          "internalType": "address",
          "name": "minter",
          "type": "address"
        },
        {
          "indexed": false,
          "internalType": "address",
          "name": "newMinter",
          "type": "address"
        }
      ],
      "name": "MinterChanged",
      "type": "event"
    },
    {
      "anonymous": false,
      "inputs": [
        {
          "indexed": true,
          "internalType": "address",
          "name": "from",
          "type": "address"
        },
        {
          "indexed": true,
          "internalType": "address",
          "name": "to",
          "type": "address"
        },
        {
          "indexed": false,
          "internalType": "uint256",
          "name": "amount",
          "type": "uint256"
        }
      ],
      "name": "Transfer",
      "type": "event"
    },
    {
      "inputs": [],
      "name": "DELEGATION_TYPEHASH",
      "outputs": [
        {
          "internalType": "bytes32",
          "name": "",
          "type": "bytes32"
        }
      ],
      "stateMutability": "view",
      "type": "function"
    },
    {
      "inputs": [],
      "name": "DOMAIN_TYPEHASH",
      "outputs": [
        {
          "internalType": "bytes32",
          "name": "",
          "type": "bytes32"
        }
      ],
      "stateMutability": "view",
      "type": "function"
    },
    {
      "inputs": [],
      "name": "PERMIT_TYPEHASH",
      "outputs": [
        {
          "internalType": "bytes32",
          "name": "",
          "type": "bytes32"
        }
      ],
      "stateMutability": "view",
      "type": "function"
    },
    {
      "inputs": [
        {
          "internalType": "address",
          "name": "account",
          "type": "address"
        },
        {
          "internalType": "address",
          "name": "spender",
          "type": "address"
        }
      ],
      "name": "allowance",
      "outputs": [
        {
          "internalType": "uint256",
          "name": "",
          "type": "uint256"
        }
      ],
      "stateMutability": "view",
      "type": "function"
    },
    {
      "inputs": [
        {
          "internalType": "address",
          "name": "spender",
          "type": "address"
        },
        {
          "internalType": "uint256",
          "name": "rawAmount",
          "type": "uint256"
        }
      ],
      "name": "approve",
      "outputs": [
        {
          "internalType": "bool",
          "name": "",
          "type": "bool"
        }
      ],
      "stateMutability": "nonpayable",
      "type": "function"
    },
    {
      "inputs": [
        {
          "internalType": "address",
          "name": "account",
          "type": "address"
        }
      ],
      "name": "balanceOf",
      "outputs": [
        {
          "internalType": "uint256",
          "name": "",
          "type": "uint256"
        }
      ],
      "stateMutability": "view",
      "type": "function"
    },
    {
      "inputs": [
        {
          "internalType": "address",
          "name": "",
          "type": "address"
        },
        {
          "internalType": "uint32",
          "name": "",
          "type": "uint32"
        }
      ],
      "name": "checkpoints",
      "outputs": [
        {
          "internalType": "uint32",
          "name": "fromBlock",
          "type": "uint32"
        },
        {
          "internalType": "uint96",
          "name": "votes",
          "type": "uint96"
        }
      ],
      "stateMutability": "view",
      "type": "function"
    },
    {
      "inputs": [],
      "name": "decimals",
      "outputs": [
        {
          "internalType": "uint8",
          "name": "",
          "type": "uint8"
        }
      ],
      "stateMutability": "view",
      "type": "function"
    },
    {
      "inputs": [
        {
          "internalType": "address",
          "name": "delegatee",
          "type": "address"
        }
      ],
      "name": "delegate",
      "outputs": [],
      "stateMutability": "nonpayable",
      "type": "function"
    },
    {
      "inputs": [
        {
          "internalType": "address",
          "name": "delegatee",
          "type": "address"
        },
        {
          "internalType": "uint256",
          "name": "nonce",
          "type": "uint256"
        },
        {
          "internalType": "uint256",
          "name": "expiry",
          "type": "uint256"
        },
        {
          "internalType": "uint8",
          "name": "v",
          "type": "uint8"
        },
        {
          "internalType": "bytes32",
          "name": "r",
          "type": "bytes32"
        },
        {
          "internalType": "bytes32",
          "name": "s",
          "type": "bytes32"
        }
      ],
      "name": "delegateBySig",
      "outputs": [],
      "stateMutability": "nonpayable",
      "type": "function"
    },
    {
      "inputs": [
        {
          "internalType": "address",
          "name": "",
          "type": "address"
        }
      ],
      "name": "delegates",
      "outputs": [
        {
          "internalType": "address",
          "name": "",
          "type": "address"
        }
      ],
      "stateMutability": "view",
      "type": "function"
    },
    {
      "inputs": [
        {
          "internalType": "address",
          "name": "account",
          "type": "address"
        }
      ],
      "name": "getCurrentVotes",
      "outputs": [
        {
          "internalType": "uint96",
          "name": "",
          "type": "uint96"
        }
      ],
      "stateMutability": "view",
      "type": "function"
    },
    {
      "inputs": [
        {
          "internalType": "address",
          "name": "account",
          "type": "address"
        },
        {
          "internalType": "uint256",
          "name": "blockNumber",
          "type": "uint256"
        }
      ],
      "name": "getPriorVotes",
      "outputs": [
        {
          "internalType": "uint96",
          "name": "",
          "type": "uint96"
        }
      ],
      "stateMutability": "view",
      "type": "function"
    },
    {
      "inputs": [],
      "name": "minimumTimeBetweenMints",
      "outputs": [
        {
          "internalType": "uint32",
          "name": "",
          "type": "uint32"
        }
      ],
      "stateMutability": "view",
      "type": "function"
    },
    {
      "inputs": [
        {
          "internalType": "address",
          "name": "dst",
          "type": "address"
        },
        {
          "internalType": "uint256",
          "name": "rawAmount",
          "type": "uint256"
        }
      ],
      "name": "mint",
      "outputs": [],
      "stateMutability": "nonpayable",
      "type": "function"
    },
    {
      "inputs": [],
      "name": "mintCap",
      "outputs": [
        {
          "internalType": "uint8",
          "name": "",
          "type": "uint8"
        }
      ],
      "stateMutability": "view",
      "type": "function"
    },
    {
      "inputs": [],
      "name": "minter",
      "outputs": [
        {
          "internalType": "address",
          "name": "",
          "type": "address"
        }
      ],
      "stateMutability": "view",
      "type": "function"
    },
    {
      "inputs": [],
      "name": "mintingAllowedAfter",
      "outputs": [
        {
          "internalType": "uint256",
          "name": "",
          "type": "uint256"
        }
      ],
      "stateMutability": "view",
      "type": "function"
    },
    {
      "inputs": [],
      "name": "name",
      "outputs": [
        {
          "internalType": "string",
          "name": "",
          "type": "string"
        }
      ],
      "stateMutability": "view",
      "type": "function"
    },
    {
      "inputs": [
        {
          "internalType": "address",
          "name": "",
          "type": "address"
        }
      ],
      "name": "nonces",
      "outputs": [
        {
          "internalType": "uint256",
          "name": "",
          "type": "uint256"
        }
      ],
      "stateMutability": "view",
      "type": "function"
    },
    {
      "inputs": [
        {
          "internalType": "address",
          "name": "",
          "type": "address"
        }
      ],
      "name": "numCheckpoints",
      "outputs": [
        {
          "internalType": "uint32",
          "name": "",
          "type": "uint32"
        }
      ],
      "stateMutability": "view",
      "type": "function"
    },
    {
      "inputs": [
        {
          "internalType": "address",
          "name": "owner",
          "type": "address"
        },
        {
          "internalType": "address",
          "name": "spender",
          "type": "address"
        },
        {
          "internalType": "uint256",
          "name": "rawAmount",
          "type": "uint256"
        },
        {
          "internalType": "uint256",
          "name": "deadline",
          "type": "uint256"
        },
        {
          "internalType": "uint8",
          "name": "v",
          "type": "uint8"
        },
        {
          "internalType": "bytes32",
          "name": "r",
          "type": "bytes32"
        },
        {
          "internalType": "bytes32",
          "name": "s",
          "type": "bytes32"
        }
      ],
      "name": "permit",
      "outputs": [],
      "stateMutability": "nonpayable",
      "type": "function"
    },
    {
      "inputs": [
        {
          "internalType": "address",
          "name": "minter_",
          "type": "address"
        }
      ],
      "name": "setMinter",
      "outputs": [],
      "stateMutability": "nonpayable",
      "type": "function"
    },
    {
      "inputs": [],
      "name": "symbol",
      "outputs": [
        {
          "internalType": "string",
          "name": "",
          "type": "string"
        }
      ],
      "stateMutability": "view",
      "type": "function"
    },
    {
      "inputs": [],
      "name": "totalSupply",
      "outputs": [
        {
          "internalType": "uint256",
          "name": "",
          "type": "uint256"
        }
      ],
      "stateMutability": "view",
      "type": "function"
    },
    {
      "inputs": [
        {
          "internalType": "address",
          "name": "dst",
          "type": "address"
        },
        {
          "internalType": "uint256",
          "name": "rawAmount",
          "type": "uint256"
        }
      ],
      "name": "transfer",
      "outputs": [
        {
          "internalType": "bool",
          "name": "",
          "type": "bool"
        }
      ],
      "stateMutability": "nonpayable",
      "type": "function"
    },
    {
      "inputs": [
        {
          "internalType": "address",
          "name": "src",
          "type": "address"
        },
        {
          "internalType": "address",
          "name": "dst",
          "type": "address"
        },
        {
          "internalType": "uint256",
          "name": "rawAmount",
          "type": "uint256"
        }
      ],
      "name": "transferFrom",
      "outputs": [
        {
          "internalType": "bool",
          "name": "",
          "type": "bool"
        }
      ],
      "stateMutability": "nonpayable",
      "type": "function"
    }
  ],
  "evm": {
    "bytecode": {
      "linkReferences": {},
      "object": "60806040526b033b2e3c9fd0803ce800000060005534801561002057600080fd5b50604051612f40380380612f408339818101604052606081101561004357600080fd5b5080516020820151604090920151909190428110156100935760405162461bcd60e51b8152600401808060200182810382526039815260200180612f076039913960400191505060405180910390fd5b600080546001600160a01b03851680835260046020908152604080852080546001600160601b0319166001600160601b03909516949094179093558354835190815292519193927fddf252ad1be2c89b69c2b068fc378daa952ba7f163c4a11628f55a4df523b3ef929081900390910190a3600180546001600160a01b0319166001600160a01b038481169190911791829055604080516000815292909116602083015280517f3b0007eb941cf645526cbb3a4fdaecda9d28ce4843167d9263b536a1f1edc0f69281900390910190a16002555050612d90806101776000396000f3fe608060405234801561001057600080fd5b50600436106101b95760003560e01c80636fcfff45116100f9578063b4b5ea5711610097578063dd62ed3e11610071578063dd62ed3e1461062f578063e7a324dc1461066a578063f1127ed814610672578063fca3b5aa146106de576101b9565b8063b4b5ea571461054a578063c3cda5201461057d578063d505accf146105d1576101b9565b8063782d6fe1116100d3578063782d6fe11461047c5780637ecebe00146104d657806395d89b4114610509578063a9059cbb14610511576101b9565b80636fcfff451461040e57806370a082311461044157806376c71ca114610474576101b9565b806330adf81f1161016657806340c10f191161014057806340c10f191461034c578063587cde1e146103875780635c11d62f146103ba5780635c19a95c146103db576101b9565b806330adf81f1461031e57806330b36cef14610326578063313ce5671461032e576101b9565b806318160ddd1161019757806318160ddd146102b957806320606b70146102d357806323b872dd146102db576101b9565b806306fdde03146101be578063075461721461023b578063095ea7b31461026c575b600080fd5b6101c6610711565b6040805160208082528351818301528351919283929083019185019080838360005b838110156102005781810151838201526020016101e8565b50505050905090810190601f16801561022d5780820380516001836020036101000a031916815260200191505b509250505060405180910390f35b61024361074a565b6040805173ffffffffffffffffffffffffffffffffffffffff9092168252519081900360200190f35b6102a56004803603604081101561028257600080fd5b5073ffffffffffffffffffffffffffffffffffffffff8135169060200135610766565b604080519115158252519081900360200190f35b6102c161088a565b60408051918252519081900360200190f35b6102c1610890565b6102a5600480360360608110156102f157600080fd5b5073ffffffffffffffffffffffffffffffffffffffff8135811691602081013590911690604001356108b4565b6102c1610a54565b6102c1610a78565b610336610a7e565b6040805160ff9092168252519081900360200190f35b6103856004803603604081101561036257600080fd5b5073ffffffffffffffffffffffffffffffffffffffff8135169060200135610a83565b005b6102436004803603602081101561039d57600080fd5b503573ffffffffffffffffffffffffffffffffffffffff16610df5565b6103c2610e1d565b6040805163ffffffff9092168252519081900360200190f35b610385600480360360208110156103f157600080fd5b503573ffffffffffffffffffffffffffffffffffffffff16610e25565b6103c26004803603602081101561042457600080fd5b503573ffffffffffffffffffffffffffffffffffffffff16610e32565b6102c16004803603602081101561045757600080fd5b503573ffffffffffffffffffffffffffffffffffffffff16610e4a565b610336610e80565b6104b56004803603604081101561049257600080fd5b5073ffffffffffffffffffffffffffffffffffffffff8135169060200135610e85565b604080516bffffffffffffffffffffffff9092168252519081900360200190f35b6102c1600480360360208110156104ec57600080fd5b503573ffffffffffffffffffffffffffffffffffffffff16611186565b6101c6611198565b6102a56004803603604081101561052757600080fd5b5073ffffffffffffffffffffffffffffffffffffffff81351690602001356111d1565b6104b56004803603602081101561056057600080fd5b503573ffffffffffffffffffffffffffffffffffffffff1661120d565b610385600480360360c081101561059357600080fd5b5073ffffffffffffffffffffffffffffffffffffffff8135169060208101359060408101359060ff6060820135169060808101359060a001356112bc565b610385600480360360e08110156105e757600080fd5b5073ffffffffffffffffffffffffffffffffffffffff813581169160208101359091169060408101359060608101359060ff6080820135169060a08101359060c00135611642565b6102c16004803603604081101561064557600080fd5b5073ffffffffffffffffffffffffffffffffffffffff81358116916020013516611bbd565b6102c1611c03565b6106b16004803603604081101561068857600080fd5b50803573ffffffffffffffffffffffffffffffffffffffff16906020013563ffffffff16611c27565b6040805163ffffffff90931683526bffffffffffffffffffffffff90911660208301528051918290030190f35b610385600480360360208110156106f457600080fd5b503573ffffffffffffffffffffffffffffffffffffffff16611c62565b6040518060400160405280600981526020017f576869746553776170000000000000000000000000000000000000000000000081525081565b60015473ffffffffffffffffffffffffffffffffffffffff1681565b6000807fffffffffffffffffffffffffffffffffffffffffffffffffffffffffffffffff8314156107b857507fffffffffffffffffffffffffffffffffffffffffffffffffffffffffffffffff6107dd565b6107da83604051806060016040528060248152602001612a7460249139611d6e565b90505b33600081815260036020908152604080832073ffffffffffffffffffffffffffffffffffffffff89168085529083529281902080547fffffffffffffffffffffffffffffffffffffffff000000000000000000000000166bffffffffffffffffffffffff8716908117909155815190815290519293927f8c5be1e5ebec7d5bd14f71427d1e84f3dd0314c0f7b2291e5b200ac8c7c3b925929181900390910190a360019150505b92915050565b60005481565b7f8cad95687ba82c2ce50e74f7b754645e5117c3a5bec8151c0726d5857980a86681565b73ffffffffffffffffffffffffffffffffffffffff831660009081526003602090815260408083203380855290835281842054825160608101909352602480845291936bffffffffffffffffffffffff90911692859261091e9288929190612a7490830139611d6e565b90508673ffffffffffffffffffffffffffffffffffffffff168373ffffffffffffffffffffffffffffffffffffffff161415801561096a57506bffffffffffffffffffffffff82811614155b15610a3c57600061099483836040518060600160405280603c8152602001612a98603c9139611e2b565b73ffffffffffffffffffffffffffffffffffffffff8981166000818152600360209081526040808320948a168084529482529182902080547fffffffffffffffffffffffffffffffffffffffff000000000000000000000000166bffffffffffffffffffffffff871690811790915582519081529151949550929391927f8c5be1e5ebec7d5bd14f71427d1e84f3dd0314c0f7b2291e5b200ac8c7c3b92592918290030190a3505b610a47878783611ebc565b5060019695505050505050565b7f6e71edae12b1b97f4d1f60370fef10105fa2faae0126114a169c64845d6126c981565b60025481565b601281565b60015473ffffffffffffffffffffffffffffffffffffffff163314610af3576040517f08c379a0000000000000000000000000000000000000000000000000000000008152600401808060200182810382526023815260200180612c056023913960400191505060405180910390fd5b600254421015610b4e576040517f08c379a0000000000000000000000000000000000000000000000000000000008152600401808060200182810382526022815260200180612d396022913960400191505060405180910390fd5b73ffffffffffffffffffffffffffffffffffffffff8216610bba576040517f08c379a000000000000000000000000000000000000000000000000000000000815260040180806020018281038252602e815260200180612ba8602e913960400191505060405180910390fd5b610bc8426301e1338061215d565b6002819055506000610bf282604051806060016040528060218152602001612cce60219139611d6e565b9050610c0e610c07600054600260ff166121d1565b6064612244565b816bffffffffffffffffffffffff161115610c8a57604080517f08c379a000000000000000000000000000000000000000000000000000000000815260206004820152601c60248201527f5753473a3a6d696e743a206578636565646564206d696e742063617000000000604482015290519081900360640190fd5b610cc5610ca7600054836bffffffffffffffffffffffff1661215d565b6040518060600160405280602681526020016129ec60269139611d6e565b6bffffffffffffffffffffffff908116600090815573ffffffffffffffffffffffffffffffffffffffff8516815260046020908152604091829020548251606081019093526024808452610d299491909116928592909190612caa90830139612286565b73ffffffffffffffffffffffffffffffffffffffff8416600081815260046020908152604080832080547fffffffffffffffffffffffffffffffffffffffff000000000000000000000000166bffffffffffffffffffffffff9687161790558051948616855251929391927fddf252ad1be2c89b69c2b068fc378daa952ba7f163c4a11628f55a4df523b3ef9281900390910190a373ffffffffffffffffffffffffffffffffffffffff808416600090815260056020526040812054610df092168361230f565b505050565b60056020526000908152604090205473ffffffffffffffffffffffffffffffffffffffff1681565b6301e1338081565b610e2f3382612556565b50565b60076020526000908152604090205463ffffffff1681565b73ffffffffffffffffffffffffffffffffffffffff166000908152600460205260409020546bffffffffffffffffffffffff1690565b600281565b6000438210610edf576040517f08c379a0000000000000000000000000000000000000000000000000000000008152600401808060200182810382526026815260200180612b616026913960400191505060405180910390fd5b73ffffffffffffffffffffffffffffffffffffffff831660009081526007602052604090205463ffffffff1680610f1a576000915050610884565b73ffffffffffffffffffffffffffffffffffffffff8416600090815260066020908152604080832063ffffffff7fffffffffffffffffffffffffffffffffffffffffffffffffffffffffffffffff860181168552925290912054168310610ff25773ffffffffffffffffffffffffffffffffffffffff841660009081526006602090815260408083207fffffffffffffffffffffffffffffffffffffffffffffffffffffffffffffffff9490940163ffffffff168352929052205464010000000090046bffffffffffffffffffffffff169050610884565b73ffffffffffffffffffffffffffffffffffffffff8416600090815260066020908152604080832083805290915290205463ffffffff1683101561103a576000915050610884565b60007fffffffffffffffffffffffffffffffffffffffffffffffffffffffffffffffff82015b8163ffffffff168163ffffffff16111561112e57600282820363ffffffff1604810361108a612976565b5073ffffffffffffffffffffffffffffffffffffffff8716600090815260066020908152604080832063ffffffff8581168552908352928190208151808301909252549283168082526401000000009093046bffffffffffffffffffffffff169181019190915290871415611109576020015194506108849350505050565b805163ffffffff1687111561112057819350611127565b6001820392505b5050611060565b5073ffffffffffffffffffffffffffffffffffffffff8516600090815260066020908152604080832063ffffffff909416835292905220546bffffffffffffffffffffffff6401000000009091041691505092915050565b60086020526000908152604090205481565b6040518060400160405280600381526020017f575345000000000000000000000000000000000000000000000000000000000081525081565b6000806111f683604051806060016040528060258152602001612cef60259139611d6e565b9050611203338583611ebc565b5060019392505050565b73ffffffffffffffffffffffffffffffffffffffff811660009081526007602052604081205463ffffffff16806112455760006112b5565b73ffffffffffffffffffffffffffffffffffffffff831660009081526006602090815260408083207fffffffffffffffffffffffffffffffffffffffffffffffffffffffffffffffff850163ffffffff16845290915290205464010000000090046bffffffffffffffffffffffff165b9392505050565b60408051808201909152600981527f576869746553776170000000000000000000000000000000000000000000000060209091015260007f8cad95687ba82c2ce50e74f7b754645e5117c3a5bec8151c0726d5857980a8667f61703dc3790c56209e077e2cef46210302a1533403439bfe37f3f85237f86a1b61133d61260a565b60408051602080820195909552808201939093526060830191909152306080808401919091528151808403909101815260a0830182528051908401207fe48329057bfd03d55e49b547132e39cffd9c1820ad7b9d4c5307691425d15adf60c084015273ffffffffffffffffffffffffffffffffffffffff8b1660e084015261010083018a90526101208084018a905282518085039091018152610140840183528051908501207f19010000000000000000000000000000000000000000000000000000000000006101608501526101628401829052610182808501829052835180860390910181526101a285018085528151918701919091206000918290526101c2860180865281905260ff8b166101e287015261020286018a905261022286018990529351929650909492939092600192610242808401937fffffffffffffffffffffffffffffffffffffffffffffffffffffffffffffffe08301929081900390910190855afa1580156114b6573d6000803e3d6000fd5b50506040517fffffffffffffffffffffffffffffffffffffffffffffffffffffffffffffffe0015191505073ffffffffffffffffffffffffffffffffffffffff811661154d576040517f08c379a0000000000000000000000000000000000000000000000000000000008152600401808060200182810382526025815260200180612a4f6025913960400191505060405180910390fd5b73ffffffffffffffffffffffffffffffffffffffff8116600090815260086020526040902080546001810190915589146115d2576040517f08c379a0000000000000000000000000000000000000000000000000000000008152600401808060200182810382526021815260200180612b076021913960400191505060405180910390fd5b8742111561162b576040517f08c379a0000000000000000000000000000000000000000000000000000000008152600401808060200182810382526025815260200180612d146025913960400191505060405180910390fd5b611635818b612556565b505050505b505050505050565b60007fffffffffffffffffffffffffffffffffffffffffffffffffffffffffffffffff86141561169357507fffffffffffffffffffffffffffffffffffffffffffffffffffffffffffffffff6116b8565b6116b58660405180606001604052806023815260200161298e60239139611d6e565b90505b60408051808201909152600981527f576869746553776170000000000000000000000000000000000000000000000060209091015260007f8cad95687ba82c2ce50e74f7b754645e5117c3a5bec8151c0726d5857980a8667f61703dc3790c56209e077e2cef46210302a1533403439bfe37f3f85237f86a1b61173961260a565b60408051602080820195909552808201939093526060830191909152306080808401919091528151808403909101815260a08301825280519084012073ffffffffffffffffffffffffffffffffffffffff8d8116600081815260088752848120805460018082019092557f6e71edae12b1b97f4d1f60370fef10105fa2faae0126114a169c64845d6126c960c089015260e0880193909352928f1661010087015261012086018e90526101408601919091526101608086018d905284518087039091018152610180860185528051908701207f19010000000000000000000000000000000000000000000000000000000000006101a08701526101a286018490526101c2808701829052855180880390910181526101e2870180875281519189019190912090839052610202870180875281905260ff8d1661022288015261024287018c905261026287018b905294519397509593949093919261028280830193927fffffffffffffffffffffffffffffffffffffffffffffffffffffffffffffffe08301929081900390910190855afa1580156118db573d6000803e3d6000fd5b50506040517fffffffffffffffffffffffffffffffffffffffffffffffffffffffffffffffe0015191505073ffffffffffffffffffffffffffffffffffffffff811661198857604080517f08c379a000000000000000000000000000000000000000000000000000000000815260206004820152601e60248201527f5753473a3a7065726d69743a20696e76616c6964207369676e61747572650000604482015290519081900360640190fd5b8b73ffffffffffffffffffffffffffffffffffffffff168173ffffffffffffffffffffffffffffffffffffffff1614611a2257604080517f08c379a000000000000000000000000000000000000000000000000000000000815260206004820152601960248201527f5753473a3a7065726d69743a20756e617574686f72697a656400000000000000604482015290519081900360640190fd5b88421115611a9157604080517f08c379a000000000000000000000000000000000000000000000000000000000815260206004820152601e60248201527f5753473a3a7065726d69743a207369676e617475726520657870697265640000604482015290519081900360640190fd5b84600360008e73ffffffffffffffffffffffffffffffffffffffff1673ffffffffffffffffffffffffffffffffffffffff16815260200190815260200160002060008d73ffffffffffffffffffffffffffffffffffffffff1673ffffffffffffffffffffffffffffffffffffffff16815260200190815260200160002060006101000a8154816bffffffffffffffffffffffff02191690836bffffffffffffffffffffffff1602179055508a73ffffffffffffffffffffffffffffffffffffffff168c73ffffffffffffffffffffffffffffffffffffffff167f8c5be1e5ebec7d5bd14f71427d1e84f3dd0314c0f7b2291e5b200ac8c7c3b9258760405180826bffffffffffffffffffffffff16815260200191505060405180910390a3505050505050505050505050565b73ffffffffffffffffffffffffffffffffffffffff91821660009081526003602090815260408083209390941682529190915220546bffffffffffffffffffffffff1690565b7fe48329057bfd03d55e49b547132e39cffd9c1820ad7b9d4c5307691425d15adf81565b600660209081526000928352604080842090915290825290205463ffffffff81169064010000000090046bffffffffffffffffffffffff1682565b60015473ffffffffffffffffffffffffffffffffffffffff163314611cd2576040517f08c379a000000000000000000000000000000000000000000000000000000000815260040180806020018281038252603d815260200180612a12603d913960400191505060405180910390fd5b6001546040805173ffffffffffffffffffffffffffffffffffffffff9283168152918316602083015280517f3b0007eb941cf645526cbb3a4fdaecda9d28ce4843167d9263b536a1f1edc0f69281900390910190a1600180547fffffffffffffffffffffffff00000000000000000000000000000000000000001673ffffffffffffffffffffffffffffffffffffffff92909216919091179055565b6000816c010000000000000000000000008410611e23576040517f08c379a00000000000000000000000000000000000000000000000000000000081526004018080602001828103825283818151815260200191508051906020019080838360005b83811015611de8578181015183820152602001611dd0565b50505050905090810190601f168015611e155780820380516001836020036101000a031916815260200191505b509250505060405180910390fd5b509192915050565b6000836bffffffffffffffffffffffff16836bffffffffffffffffffffffff1611158290611eb4576040517f08c379a0000000000000000000000000000000000000000000000000000000008152602060048201818152835160248401528351909283926044909101919085019080838360008315611de8578181015183820152602001611dd0565b505050900390565b73ffffffffffffffffffffffffffffffffffffffff8316611f28576040517f08c379a000000000000000000000000000000000000000000000000000000000815260040180806020018281038252603b8152602001806129b1603b913960400191505060405180910390fd5b73ffffffffffffffffffffffffffffffffffffffff8216611f94576040517f08c379a0000000000000000000000000000000000000000000000000000000008152600401808060200182810382526039815260200180612b286039913960400191505060405180910390fd5b73ffffffffffffffffffffffffffffffffffffffff8316600090815260046020908152604091829020548251606081019093526035808452611ff1936bffffffffffffffffffffffff9092169285929190612c2890830139611e2b565b73ffffffffffffffffffffffffffffffffffffffff848116600090815260046020908152604080832080547fffffffffffffffffffffffffffffffffffffffff000000000000000000000000166bffffffffffffffffffffffff96871617905592861682529082902054825160608101909352602f8084526120839491909116928592909190612bd690830139612286565b73ffffffffffffffffffffffffffffffffffffffff83811660008181526004602090815260409182902080547fffffffffffffffffffffffffffffffffffffffff000000000000000000000000166bffffffffffffffffffffffff9687161790558151948616855290519193928716927fddf252ad1be2c89b69c2b068fc378daa952ba7f163c4a11628f55a4df523b3ef929081900390910190a373ffffffffffffffffffffffffffffffffffffffff808416600090815260056020526040808220548584168352912054610df09291821691168361230f565b6000828201838110156112b557604080517f08c379a000000000000000000000000000000000000000000000000000000000815260206004820152601b60248201527f536166654d6174683a206164646974696f6e206f766572666c6f770000000000604482015290519081900360640190fd5b6000826121e057506000610884565b828202828482816121ed57fe5b04146112b5576040517f08c379a0000000000000000000000000000000000000000000000000000000008152600401808060200182810382526021815260200180612b876021913960400191505060405180910390fd5b60006112b583836040518060400160405280601a81526020017f536166654d6174683a206469766973696f6e206279207a65726f00000000000081525061260e565b6000838301826bffffffffffffffffffffffff8087169083161015612306576040517f08c379a0000000000000000000000000000000000000000000000000000000008152602060048201818152835160248401528351909283926044909101919085019080838360008315611de8578181015183820152602001611dd0565b50949350505050565b8173ffffffffffffffffffffffffffffffffffffffff168373ffffffffffffffffffffffffffffffffffffffff161415801561235957506000816bffffffffffffffffffffffff16115b15610df05773ffffffffffffffffffffffffffffffffffffffff83161561245c5773ffffffffffffffffffffffffffffffffffffffff831660009081526007602052604081205463ffffffff1690816123b3576000612423565b73ffffffffffffffffffffffffffffffffffffffff851660009081526006602090815260408083207fffffffffffffffffffffffffffffffffffffffffffffffffffffffffffffffff860163ffffffff16845290915290205464010000000090046bffffffffffffffffffffffff165b9050600061244a8285604051806060016040528060278152602001612c5d60279139611e2b565b90506124588684848461268d565b5050505b73ffffffffffffffffffffffffffffffffffffffff821615610df05773ffffffffffffffffffffffffffffffffffffffff821660009081526007602052604081205463ffffffff1690816124b1576000612521565b73ffffffffffffffffffffffffffffffffffffffff841660009081526006602090815260408083207fffffffffffffffffffffffffffffffffffffffffffffffffffffffffffffffff860163ffffffff16845290915290205464010000000090046bffffffffffffffffffffffff165b905060006125488285604051806060016040528060268152602001612c8460269139612286565b905061163a8584848461268d565b73ffffffffffffffffffffffffffffffffffffffff808316600081815260056020818152604080842080546004845282862054949093528787167fffffffffffffffffffffffff000000000000000000000000000000000000000084168117909155905191909516946bffffffffffffffffffffffff9092169391928592917f3134e8a2e6d97e929a7e54011ea5485d7d196dd5f0ba4d4ef95803e8e3fc257f9190a461260482848361230f565b50505050565b4690565b60008183612677576040517f08c379a0000000000000000000000000000000000000000000000000000000008152602060048201818152835160248401528351909283926044909101919085019080838360008315611de8578181015183820152602001611dd0565b50600083858161268357fe5b0495945050505050565b60006126b143604051806060016040528060338152602001612ad460339139612906565b905060008463ffffffff16118015612725575073ffffffffffffffffffffffffffffffffffffffff8516600090815260066020908152604080832063ffffffff7fffffffffffffffffffffffffffffffffffffffffffffffffffffffffffffffff8901811685529252909120548282169116145b156127c45773ffffffffffffffffffffffffffffffffffffffff851660009081526006602090815260408083207fffffffffffffffffffffffffffffffffffffffffffffffffffffffffffffffff880163ffffffff168452909152902080547fffffffffffffffffffffffffffffffff000000000000000000000000ffffffff166401000000006bffffffffffffffffffffffff8516021790556128a0565b60408051808201825263ffffffff80841682526bffffffffffffffffffffffff808616602080850191825273ffffffffffffffffffffffffffffffffffffffff8b166000818152600683528781208c871682528352878120965187549451909516640100000000027fffffffffffffffffffffffffffffffff000000000000000000000000ffffffff9587167fffffffffffffffffffffffffffffffffffffffffffffffffffffffff00000000958616179590951694909417909555938252600790935292909220805460018801909316929091169190911790555b604080516bffffffffffffffffffffffff808616825284166020820152815173ffffffffffffffffffffffffffffffffffffffff8816927fdec2bacdd2f05b59de34da9b523dff8be42e5e38e818c82fdb0bae774387a724928290030190a25050505050565b6000816401000000008410611e23576040517f08c379a0000000000000000000000000000000000000000000000000000000008152602060048201818152835160248401528351909283926044909101919085019080838360008315611de8578181015183820152602001611dd0565b60408051808201909152600080825260208201529056fe5753473a3a7065726d69743a20616d6f756e74206578636565647320393620626974735753473a3a5f7472616e73666572546f6b656e733a2063616e6e6f74207472616e736665722066726f6d20746865207a65726f20616464726573735753473a3a6d696e743a20746f74616c537570706c79206578636565647320393620626974735753473a3a7365744d696e7465723a206f6e6c7920746865206d696e7465722063616e206368616e676520746865206d696e74657220616464726573735753473a3a64656c656761746542795369673a20696e76616c6964207369676e61747572655753473a3a617070726f76653a20616d6f756e74206578636565647320393620626974735753473a3a7472616e7366657246726f6d3a207472616e7366657220616d6f756e742065786365656473207370656e64657220616c6c6f77616e63655753473a3a5f7772697465436865636b706f696e743a20626c6f636b206e756d626572206578636565647320333220626974735753473a3a64656c656761746542795369673a20696e76616c6964206e6f6e63655753473a3a5f7472616e73666572546f6b656e733a2063616e6e6f74207472616e7366657220746f20746865207a65726f20616464726573735753473a3a6765745072696f72566f7465733a206e6f74207965742064657465726d696e6564536166654d6174683a206d756c7469706c69636174696f6e206f766572666c6f775753473a3a6d696e743a2063616e6e6f74207472616e7366657220746f20746865207a65726f20616464726573735753473a3a5f7472616e73666572546f6b656e733a207472616e7366657220616d6f756e74206f766572666c6f77735753473a3a6d696e743a206f6e6c7920746865206d696e7465722063616e206d696e745753473a3a5f7472616e73666572546f6b656e733a207472616e7366657220616d6f756e7420657863656564732062616c616e63655753473a3a5f6d6f7665566f7465733a20766f746520616d6f756e7420756e646572666c6f77735753473a3a5f6d6f7665566f7465733a20766f746520616d6f756e74206f766572666c6f77735753473a3a6d696e743a207472616e7366657220616d6f756e74206f766572666c6f77735753473a3a6d696e743a20616d6f756e74206578636565647320393620626974735753473a3a7472616e736665723a20616d6f756e74206578636565647320393620626974735753473a3a64656c656761746542795369673a207369676e617475726520657870697265645753473a3a6d696e743a206d696e74696e67206e6f7420616c6c6f77656420796574a2646970667358221220b3dd7024e65b7151bac9e9e8b5b74238ab80725494824aa56ce1d259197aef9364736f6c634300060c00335753473a3a636f6e7374727563746f723a206d696e74696e672063616e206f6e6c7920626567696e206166746572206465706c6f796d656e74",
      "opcodes": "PUSH1 0x80 PUSH1 0x40 MSTORE PUSH12 0x33B2E3C9FD0803CE8000000 PUSH1 0x0 SSTORE CALLVALUE DUP1 ISZERO PUSH2 0x20 JUMPI PUSH1 0x0 DUP1 REVERT JUMPDEST POP PUSH1 0x40 MLOAD PUSH2 0x2F40 CODESIZE SUB DUP1 PUSH2 0x2F40 DUP4 CODECOPY DUP2 DUP2 ADD PUSH1 0x40 MSTORE PUSH1 0x60 DUP2 LT ISZERO PUSH2 0x43 JUMPI PUSH1 0x0 DUP1 REVERT JUMPDEST POP DUP1 MLOAD PUSH1 0x20 DUP3 ADD MLOAD PUSH1 0x40 SWAP1 SWAP3 ADD MLOAD SWAP1 SWAP2 SWAP1 TIMESTAMP DUP2 LT ISZERO PUSH2 0x93 JUMPI PUSH1 0x40 MLOAD PUSH3 0x461BCD PUSH1 0xE5 SHL DUP2 MSTORE PUSH1 0x4 ADD DUP1 DUP1 PUSH1 0x20 ADD DUP3 DUP2 SUB DUP3 MSTORE PUSH1 0x39 DUP2 MSTORE PUSH1 0x20 ADD DUP1 PUSH2 0x2F07 PUSH1 0x39 SWAP2 CODECOPY PUSH1 0x40 ADD SWAP2 POP POP PUSH1 0x40 MLOAD DUP1 SWAP2 SUB SWAP1 REVERT JUMPDEST PUSH1 0x0 DUP1 SLOAD PUSH1 0x1 PUSH1 0x1 PUSH1 0xA0 SHL SUB DUP6 AND DUP1 DUP4 MSTORE PUSH1 0x4 PUSH1 0x20 SWAP1 DUP2 MSTORE PUSH1 0x40 DUP1 DUP6 KECCAK256 DUP1 SLOAD PUSH1 0x1 PUSH1 0x1 PUSH1 0x60 SHL SUB NOT AND PUSH1 0x1 PUSH1 0x1 PUSH1 0x60 SHL SUB SWAP1 SWAP6 AND SWAP5 SWAP1 SWAP5 OR SWAP1 SWAP4 SSTORE DUP4 SLOAD DUP4 MLOAD SWAP1 DUP2 MSTORE SWAP3 MLOAD SWAP2 SWAP4 SWAP3 PUSH32 0xDDF252AD1BE2C89B69C2B068FC378DAA952BA7F163C4A11628F55A4DF523B3EF SWAP3 SWAP1 DUP2 SWAP1 SUB SWAP1 SWAP2 ADD SWAP1 LOG3 PUSH1 0x1 DUP1 SLOAD PUSH1 0x1 PUSH1 0x1 PUSH1 0xA0 SHL SUB NOT AND PUSH1 0x1 PUSH1 0x1 PUSH1 0xA0 SHL SUB DUP5 DUP2 AND SWAP2 SWAP1 SWAP2 OR SWAP2 DUP3 SWAP1 SSTORE PUSH1 0x40 DUP1 MLOAD PUSH1 0x0 DUP2 MSTORE SWAP3 SWAP1 SWAP2 AND PUSH1 0x20 DUP4 ADD MSTORE DUP1 MLOAD PUSH32 0x3B0007EB941CF645526CBB3A4FDAECDA9D28CE4843167D9263B536A1F1EDC0F6 SWAP3 DUP2 SWAP1 SUB SWAP1 SWAP2 ADD SWAP1 LOG1 PUSH1 0x2 SSTORE POP POP PUSH2 0x2D90 DUP1 PUSH2 0x177 PUSH1 0x0 CODECOPY PUSH1 0x0 RETURN INVALID PUSH1 0x80 PUSH1 0x40 MSTORE CALLVALUE DUP1 ISZERO PUSH2 0x10 JUMPI PUSH1 0x0 DUP1 REVERT JUMPDEST POP PUSH1 0x4 CALLDATASIZE LT PUSH2 0x1B9 JUMPI PUSH1 0x0 CALLDATALOAD PUSH1 0xE0 SHR DUP1 PUSH4 0x6FCFFF45 GT PUSH2 0xF9 JUMPI DUP1 PUSH4 0xB4B5EA57 GT PUSH2 0x97 JUMPI DUP1 PUSH4 0xDD62ED3E GT PUSH2 0x71 JUMPI DUP1 PUSH4 0xDD62ED3E EQ PUSH2 0x62F JUMPI DUP1 PUSH4 0xE7A324DC EQ PUSH2 0x66A JUMPI DUP1 PUSH4 0xF1127ED8 EQ PUSH2 0x672 JUMPI DUP1 PUSH4 0xFCA3B5AA EQ PUSH2 0x6DE JUMPI PUSH2 0x1B9 JUMP JUMPDEST DUP1 PUSH4 0xB4B5EA57 EQ PUSH2 0x54A JUMPI DUP1 PUSH4 0xC3CDA520 EQ PUSH2 0x57D JUMPI DUP1 PUSH4 0xD505ACCF EQ PUSH2 0x5D1 JUMPI PUSH2 0x1B9 JUMP JUMPDEST DUP1 PUSH4 0x782D6FE1 GT PUSH2 0xD3 JUMPI DUP1 PUSH4 0x782D6FE1 EQ PUSH2 0x47C JUMPI DUP1 PUSH4 0x7ECEBE00 EQ PUSH2 0x4D6 JUMPI DUP1 PUSH4 0x95D89B41 EQ PUSH2 0x509 JUMPI DUP1 PUSH4 0xA9059CBB EQ PUSH2 0x511 JUMPI PUSH2 0x1B9 JUMP JUMPDEST DUP1 PUSH4 0x6FCFFF45 EQ PUSH2 0x40E JUMPI DUP1 PUSH4 0x70A08231 EQ PUSH2 0x441 JUMPI DUP1 PUSH4 0x76C71CA1 EQ PUSH2 0x474 JUMPI PUSH2 0x1B9 JUMP JUMPDEST DUP1 PUSH4 0x30ADF81F GT PUSH2 0x166 JUMPI DUP1 PUSH4 0x40C10F19 GT PUSH2 0x140 JUMPI DUP1 PUSH4 0x40C10F19 EQ PUSH2 0x34C JUMPI DUP1 PUSH4 0x587CDE1E EQ PUSH2 0x387 JUMPI DUP1 PUSH4 0x5C11D62F EQ PUSH2 0x3BA JUMPI DUP1 PUSH4 0x5C19A95C EQ PUSH2 0x3DB JUMPI PUSH2 0x1B9 JUMP JUMPDEST DUP1 PUSH4 0x30ADF81F EQ PUSH2 0x31E JUMPI DUP1 PUSH4 0x30B36CEF EQ PUSH2 0x326 JUMPI DUP1 PUSH4 0x313CE567 EQ PUSH2 0x32E JUMPI PUSH2 0x1B9 JUMP JUMPDEST DUP1 PUSH4 0x18160DDD GT PUSH2 0x197 JUMPI DUP1 PUSH4 0x18160DDD EQ PUSH2 0x2B9 JUMPI DUP1 PUSH4 0x20606B70 EQ PUSH2 0x2D3 JUMPI DUP1 PUSH4 0x23B872DD EQ PUSH2 0x2DB JUMPI PUSH2 0x1B9 JUMP JUMPDEST DUP1 PUSH4 0x6FDDE03 EQ PUSH2 0x1BE JUMPI DUP1 PUSH4 0x7546172 EQ PUSH2 0x23B JUMPI DUP1 PUSH4 0x95EA7B3 EQ PUSH2 0x26C JUMPI JUMPDEST PUSH1 0x0 DUP1 REVERT JUMPDEST PUSH2 0x1C6 PUSH2 0x711 JUMP JUMPDEST PUSH1 0x40 DUP1 MLOAD PUSH1 0x20 DUP1 DUP3 MSTORE DUP4 MLOAD DUP2 DUP4 ADD MSTORE DUP4 MLOAD SWAP2 SWAP3 DUP4 SWAP3 SWAP1 DUP4 ADD SWAP2 DUP6 ADD SWAP1 DUP1 DUP4 DUP4 PUSH1 0x0 JUMPDEST DUP4 DUP2 LT ISZERO PUSH2 0x200 JUMPI DUP2 DUP2 ADD MLOAD DUP4 DUP3 ADD MSTORE PUSH1 0x20 ADD PUSH2 0x1E8 JUMP JUMPDEST POP POP POP POP SWAP1 POP SWAP1 DUP2 ADD SWAP1 PUSH1 0x1F AND DUP1 ISZERO PUSH2 0x22D JUMPI DUP1 DUP3 SUB DUP1 MLOAD PUSH1 0x1 DUP4 PUSH1 0x20 SUB PUSH2 0x100 EXP SUB NOT AND DUP2 MSTORE PUSH1 0x20 ADD SWAP2 POP JUMPDEST POP SWAP3 POP POP POP PUSH1 0x40 MLOAD DUP1 SWAP2 SUB SWAP1 RETURN JUMPDEST PUSH2 0x243 PUSH2 0x74A JUMP JUMPDEST PUSH1 0x40 DUP1 MLOAD PUSH20 0xFFFFFFFFFFFFFFFFFFFFFFFFFFFFFFFFFFFFFFFF SWAP1 SWAP3 AND DUP3 MSTORE MLOAD SWAP1 DUP2 SWAP1 SUB PUSH1 0x20 ADD SWAP1 RETURN JUMPDEST PUSH2 0x2A5 PUSH1 0x4 DUP1 CALLDATASIZE SUB PUSH1 0x40 DUP2 LT ISZERO PUSH2 0x282 JUMPI PUSH1 0x0 DUP1 REVERT JUMPDEST POP PUSH20 0xFFFFFFFFFFFFFFFFFFFFFFFFFFFFFFFFFFFFFFFF DUP2 CALLDATALOAD AND SWAP1 PUSH1 0x20 ADD CALLDATALOAD PUSH2 0x766 JUMP JUMPDEST PUSH1 0x40 DUP1 MLOAD SWAP2 ISZERO ISZERO DUP3 MSTORE MLOAD SWAP1 DUP2 SWAP1 SUB PUSH1 0x20 ADD SWAP1 RETURN JUMPDEST PUSH2 0x2C1 PUSH2 0x88A JUMP JUMPDEST PUSH1 0x40 DUP1 MLOAD SWAP2 DUP3 MSTORE MLOAD SWAP1 DUP2 SWAP1 SUB PUSH1 0x20 ADD SWAP1 RETURN JUMPDEST PUSH2 0x2C1 PUSH2 0x890 JUMP JUMPDEST PUSH2 0x2A5 PUSH1 0x4 DUP1 CALLDATASIZE SUB PUSH1 0x60 DUP2 LT ISZERO PUSH2 0x2F1 JUMPI PUSH1 0x0 DUP1 REVERT JUMPDEST POP PUSH20 0xFFFFFFFFFFFFFFFFFFFFFFFFFFFFFFFFFFFFFFFF DUP2 CALLDATALOAD DUP2 AND SWAP2 PUSH1 0x20 DUP2 ADD CALLDATALOAD SWAP1 SWAP2 AND SWAP1 PUSH1 0x40 ADD CALLDATALOAD PUSH2 0x8B4 JUMP JUMPDEST PUSH2 0x2C1 PUSH2 0xA54 JUMP JUMPDEST PUSH2 0x2C1 PUSH2 0xA78 JUMP JUMPDEST PUSH2 0x336 PUSH2 0xA7E JUMP JUMPDEST PUSH1 0x40 DUP1 MLOAD PUSH1 0xFF SWAP1 SWAP3 AND DUP3 MSTORE MLOAD SWAP1 DUP2 SWAP1 SUB PUSH1 0x20 ADD SWAP1 RETURN JUMPDEST PUSH2 0x385 PUSH1 0x4 DUP1 CALLDATASIZE SUB PUSH1 0x40 DUP2 LT ISZERO PUSH2 0x362 JUMPI PUSH1 0x0 DUP1 REVERT JUMPDEST POP PUSH20 0xFFFFFFFFFFFFFFFFFFFFFFFFFFFFFFFFFFFFFFFF DUP2 CALLDATALOAD AND SWAP1 PUSH1 0x20 ADD CALLDATALOAD PUSH2 0xA83 JUMP JUMPDEST STOP JUMPDEST PUSH2 0x243 PUSH1 0x4 DUP1 CALLDATASIZE SUB PUSH1 0x20 DUP2 LT ISZERO PUSH2 0x39D JUMPI PUSH1 0x0 DUP1 REVERT JUMPDEST POP CALLDATALOAD PUSH20 0xFFFFFFFFFFFFFFFFFFFFFFFFFFFFFFFFFFFFFFFF AND PUSH2 0xDF5 JUMP JUMPDEST PUSH2 0x3C2 PUSH2 0xE1D JUMP JUMPDEST PUSH1 0x40 DUP1 MLOAD PUSH4 0xFFFFFFFF SWAP1 SWAP3 AND DUP3 MSTORE MLOAD SWAP1 DUP2 SWAP1 SUB PUSH1 0x20 ADD SWAP1 RETURN JUMPDEST PUSH2 0x385 PUSH1 0x4 DUP1 CALLDATASIZE SUB PUSH1 0x20 DUP2 LT ISZERO PUSH2 0x3F1 JUMPI PUSH1 0x0 DUP1 REVERT JUMPDEST POP CALLDATALOAD PUSH20 0xFFFFFFFFFFFFFFFFFFFFFFFFFFFFFFFFFFFFFFFF AND PUSH2 0xE25 JUMP JUMPDEST PUSH2 0x3C2 PUSH1 0x4 DUP1 CALLDATASIZE SUB PUSH1 0x20 DUP2 LT ISZERO PUSH2 0x424 JUMPI PUSH1 0x0 DUP1 REVERT JUMPDEST POP CALLDATALOAD PUSH20 0xFFFFFFFFFFFFFFFFFFFFFFFFFFFFFFFFFFFFFFFF AND PUSH2 0xE32 JUMP JUMPDEST PUSH2 0x2C1 PUSH1 0x4 DUP1 CALLDATASIZE SUB PUSH1 0x20 DUP2 LT ISZERO PUSH2 0x457 JUMPI PUSH1 0x0 DUP1 REVERT JUMPDEST POP CALLDATALOAD PUSH20 0xFFFFFFFFFFFFFFFFFFFFFFFFFFFFFFFFFFFFFFFF AND PUSH2 0xE4A JUMP JUMPDEST PUSH2 0x336 PUSH2 0xE80 JUMP JUMPDEST PUSH2 0x4B5 PUSH1 0x4 DUP1 CALLDATASIZE SUB PUSH1 0x40 DUP2 LT ISZERO PUSH2 0x492 JUMPI PUSH1 0x0 DUP1 REVERT JUMPDEST POP PUSH20 0xFFFFFFFFFFFFFFFFFFFFFFFFFFFFFFFFFFFFFFFF DUP2 CALLDATALOAD AND SWAP1 PUSH1 0x20 ADD CALLDATALOAD PUSH2 0xE85 JUMP JUMPDEST PUSH1 0x40 DUP1 MLOAD PUSH12 0xFFFFFFFFFFFFFFFFFFFFFFFF SWAP1 SWAP3 AND DUP3 MSTORE MLOAD SWAP1 DUP2 SWAP1 SUB PUSH1 0x20 ADD SWAP1 RETURN JUMPDEST PUSH2 0x2C1 PUSH1 0x4 DUP1 CALLDATASIZE SUB PUSH1 0x20 DUP2 LT ISZERO PUSH2 0x4EC JUMPI PUSH1 0x0 DUP1 REVERT JUMPDEST POP CALLDATALOAD PUSH20 0xFFFFFFFFFFFFFFFFFFFFFFFFFFFFFFFFFFFFFFFF AND PUSH2 0x1186 JUMP JUMPDEST PUSH2 0x1C6 PUSH2 0x1198 JUMP JUMPDEST PUSH2 0x2A5 PUSH1 0x4 DUP1 CALLDATASIZE SUB PUSH1 0x40 DUP2 LT ISZERO PUSH2 0x527 JUMPI PUSH1 0x0 DUP1 REVERT JUMPDEST POP PUSH20 0xFFFFFFFFFFFFFFFFFFFFFFFFFFFFFFFFFFFFFFFF DUP2 CALLDATALOAD AND SWAP1 PUSH1 0x20 ADD CALLDATALOAD PUSH2 0x11D1 JUMP JUMPDEST PUSH2 0x4B5 PUSH1 0x4 DUP1 CALLDATASIZE SUB PUSH1 0x20 DUP2 LT ISZERO PUSH2 0x560 JUMPI PUSH1 0x0 DUP1 REVERT JUMPDEST POP CALLDATALOAD PUSH20 0xFFFFFFFFFFFFFFFFFFFFFFFFFFFFFFFFFFFFFFFF AND PUSH2 0x120D JUMP JUMPDEST PUSH2 0x385 PUSH1 0x4 DUP1 CALLDATASIZE SUB PUSH1 0xC0 DUP2 LT ISZERO PUSH2 0x593 JUMPI PUSH1 0x0 DUP1 REVERT JUMPDEST POP PUSH20 0xFFFFFFFFFFFFFFFFFFFFFFFFFFFFFFFFFFFFFFFF DUP2 CALLDATALOAD AND SWAP1 PUSH1 0x20 DUP2 ADD CALLDATALOAD SWAP1 PUSH1 0x40 DUP2 ADD CALLDATALOAD SWAP1 PUSH1 0xFF PUSH1 0x60 DUP3 ADD CALLDATALOAD AND SWAP1 PUSH1 0x80 DUP2 ADD CALLDATALOAD SWAP1 PUSH1 0xA0 ADD CALLDATALOAD PUSH2 0x12BC JUMP JUMPDEST PUSH2 0x385 PUSH1 0x4 DUP1 CALLDATASIZE SUB PUSH1 0xE0 DUP2 LT ISZERO PUSH2 0x5E7 JUMPI PUSH1 0x0 DUP1 REVERT JUMPDEST POP PUSH20 0xFFFFFFFFFFFFFFFFFFFFFFFFFFFFFFFFFFFFFFFF DUP2 CALLDATALOAD DUP2 AND SWAP2 PUSH1 0x20 DUP2 ADD CALLDATALOAD SWAP1 SWAP2 AND SWAP1 PUSH1 0x40 DUP2 ADD CALLDATALOAD SWAP1 PUSH1 0x60 DUP2 ADD CALLDATALOAD SWAP1 PUSH1 0xFF PUSH1 0x80 DUP3 ADD CALLDATALOAD AND SWAP1 PUSH1 0xA0 DUP2 ADD CALLDATALOAD SWAP1 PUSH1 0xC0 ADD CALLDATALOAD PUSH2 0x1642 JUMP JUMPDEST PUSH2 0x2C1 PUSH1 0x4 DUP1 CALLDATASIZE SUB PUSH1 0x40 DUP2 LT ISZERO PUSH2 0x645 JUMPI PUSH1 0x0 DUP1 REVERT JUMPDEST POP PUSH20 0xFFFFFFFFFFFFFFFFFFFFFFFFFFFFFFFFFFFFFFFF DUP2 CALLDATALOAD DUP2 AND SWAP2 PUSH1 0x20 ADD CALLDATALOAD AND PUSH2 0x1BBD JUMP JUMPDEST PUSH2 0x2C1 PUSH2 0x1C03 JUMP JUMPDEST PUSH2 0x6B1 PUSH1 0x4 DUP1 CALLDATASIZE SUB PUSH1 0x40 DUP2 LT ISZERO PUSH2 0x688 JUMPI PUSH1 0x0 DUP1 REVERT JUMPDEST POP DUP1 CALLDATALOAD PUSH20 0xFFFFFFFFFFFFFFFFFFFFFFFFFFFFFFFFFFFFFFFF AND SWAP1 PUSH1 0x20 ADD CALLDATALOAD PUSH4 0xFFFFFFFF AND PUSH2 0x1C27 JUMP JUMPDEST PUSH1 0x40 DUP1 MLOAD PUSH4 0xFFFFFFFF SWAP1 SWAP4 AND DUP4 MSTORE PUSH12 0xFFFFFFFFFFFFFFFFFFFFFFFF SWAP1 SWAP2 AND PUSH1 0x20 DUP4 ADD MSTORE DUP1 MLOAD SWAP2 DUP3 SWAP1 SUB ADD SWAP1 RETURN JUMPDEST PUSH2 0x385 PUSH1 0x4 DUP1 CALLDATASIZE SUB PUSH1 0x20 DUP2 LT ISZERO PUSH2 0x6F4 JUMPI PUSH1 0x0 DUP1 REVERT JUMPDEST POP CALLDATALOAD PUSH20 0xFFFFFFFFFFFFFFFFFFFFFFFFFFFFFFFFFFFFFFFF AND PUSH2 0x1C62 JUMP JUMPDEST PUSH1 0x40 MLOAD DUP1 PUSH1 0x40 ADD PUSH1 0x40 MSTORE DUP1 PUSH1 0x9 DUP2 MSTORE PUSH1 0x20 ADD PUSH32 0x5768697465537761700000000000000000000000000000000000000000000000 DUP2 MSTORE POP DUP2 JUMP JUMPDEST PUSH1 0x1 SLOAD PUSH20 0xFFFFFFFFFFFFFFFFFFFFFFFFFFFFFFFFFFFFFFFF AND DUP2 JUMP JUMPDEST PUSH1 0x0 DUP1 PUSH32 0xFFFFFFFFFFFFFFFFFFFFFFFFFFFFFFFFFFFFFFFFFFFFFFFFFFFFFFFFFFFFFFFF DUP4 EQ ISZERO PUSH2 0x7B8 JUMPI POP PUSH32 0xFFFFFFFFFFFFFFFFFFFFFFFFFFFFFFFFFFFFFFFFFFFFFFFFFFFFFFFFFFFFFFFF PUSH2 0x7DD JUMP JUMPDEST PUSH2 0x7DA DUP4 PUSH1 0x40 MLOAD DUP1 PUSH1 0x60 ADD PUSH1 0x40 MSTORE DUP1 PUSH1 0x24 DUP2 MSTORE PUSH1 0x20 ADD PUSH2 0x2A74 PUSH1 0x24 SWAP2 CODECOPY PUSH2 0x1D6E JUMP JUMPDEST SWAP1 POP JUMPDEST CALLER PUSH1 0x0 DUP2 DUP2 MSTORE PUSH1 0x3 PUSH1 0x20 SWAP1 DUP2 MSTORE PUSH1 0x40 DUP1 DUP4 KECCAK256 PUSH20 0xFFFFFFFFFFFFFFFFFFFFFFFFFFFFFFFFFFFFFFFF DUP10 AND DUP1 DUP6 MSTORE SWAP1 DUP4 MSTORE SWAP3 DUP2 SWAP1 KECCAK256 DUP1 SLOAD PUSH32 0xFFFFFFFFFFFFFFFFFFFFFFFFFFFFFFFFFFFFFFFF000000000000000000000000 AND PUSH12 0xFFFFFFFFFFFFFFFFFFFFFFFF DUP8 AND SWAP1 DUP2 OR SWAP1 SWAP2 SSTORE DUP2 MLOAD SWAP1 DUP2 MSTORE SWAP1 MLOAD SWAP3 SWAP4 SWAP3 PUSH32 0x8C5BE1E5EBEC7D5BD14F71427D1E84F3DD0314C0F7B2291E5B200AC8C7C3B925 SWAP3 SWAP2 DUP2 SWAP1 SUB SWAP1 SWAP2 ADD SWAP1 LOG3 PUSH1 0x1 SWAP2 POP POP JUMPDEST SWAP3 SWAP2 POP POP JUMP JUMPDEST PUSH1 0x0 SLOAD DUP2 JUMP JUMPDEST PUSH32 0x8CAD95687BA82C2CE50E74F7B754645E5117C3A5BEC8151C0726D5857980A866 DUP2 JUMP JUMPDEST PUSH20 0xFFFFFFFFFFFFFFFFFFFFFFFFFFFFFFFFFFFFFFFF DUP4 AND PUSH1 0x0 SWAP1 DUP2 MSTORE PUSH1 0x3 PUSH1 0x20 SWAP1 DUP2 MSTORE PUSH1 0x40 DUP1 DUP4 KECCAK256 CALLER DUP1 DUP6 MSTORE SWAP1 DUP4 MSTORE DUP2 DUP5 KECCAK256 SLOAD DUP3 MLOAD PUSH1 0x60 DUP2 ADD SWAP1 SWAP4 MSTORE PUSH1 0x24 DUP1 DUP5 MSTORE SWAP2 SWAP4 PUSH12 0xFFFFFFFFFFFFFFFFFFFFFFFF SWAP1 SWAP2 AND SWAP3 DUP6 SWAP3 PUSH2 0x91E SWAP3 DUP9 SWAP3 SWAP2 SWAP1 PUSH2 0x2A74 SWAP1 DUP4 ADD CODECOPY PUSH2 0x1D6E JUMP JUMPDEST SWAP1 POP DUP7 PUSH20 0xFFFFFFFFFFFFFFFFFFFFFFFFFFFFFFFFFFFFFFFF AND DUP4 PUSH20 0xFFFFFFFFFFFFFFFFFFFFFFFFFFFFFFFFFFFFFFFF AND EQ ISZERO DUP1 ISZERO PUSH2 0x96A JUMPI POP PUSH12 0xFFFFFFFFFFFFFFFFFFFFFFFF DUP3 DUP2 AND EQ ISZERO JUMPDEST ISZERO PUSH2 0xA3C JUMPI PUSH1 0x0 PUSH2 0x994 DUP4 DUP4 PUSH1 0x40 MLOAD DUP1 PUSH1 0x60 ADD PUSH1 0x40 MSTORE DUP1 PUSH1 0x3C DUP2 MSTORE PUSH1 0x20 ADD PUSH2 0x2A98 PUSH1 0x3C SWAP2 CODECOPY PUSH2 0x1E2B JUMP JUMPDEST PUSH20 0xFFFFFFFFFFFFFFFFFFFFFFFFFFFFFFFFFFFFFFFF DUP10 DUP2 AND PUSH1 0x0 DUP2 DUP2 MSTORE PUSH1 0x3 PUSH1 0x20 SWAP1 DUP2 MSTORE PUSH1 0x40 DUP1 DUP4 KECCAK256 SWAP5 DUP11 AND DUP1 DUP5 MSTORE SWAP5 DUP3 MSTORE SWAP2 DUP3 SWAP1 KECCAK256 DUP1 SLOAD PUSH32 0xFFFFFFFFFFFFFFFFFFFFFFFFFFFFFFFFFFFFFFFF000000000000000000000000 AND PUSH12 0xFFFFFFFFFFFFFFFFFFFFFFFF DUP8 AND SWAP1 DUP2 OR SWAP1 SWAP2 SSTORE DUP3 MLOAD SWAP1 DUP2 MSTORE SWAP2 MLOAD SWAP5 SWAP6 POP SWAP3 SWAP4 SWAP2 SWAP3 PUSH32 0x8C5BE1E5EBEC7D5BD14F71427D1E84F3DD0314C0F7B2291E5B200AC8C7C3B925 SWAP3 SWAP2 DUP3 SWAP1 SUB ADD SWAP1 LOG3 POP JUMPDEST PUSH2 0xA47 DUP8 DUP8 DUP4 PUSH2 0x1EBC JUMP JUMPDEST POP PUSH1 0x1 SWAP7 SWAP6 POP POP POP POP POP POP JUMP JUMPDEST PUSH32 0x6E71EDAE12B1B97F4D1F60370FEF10105FA2FAAE0126114A169C64845D6126C9 DUP2 JUMP JUMPDEST PUSH1 0x2 SLOAD DUP2 JUMP JUMPDEST PUSH1 0x12 DUP2 JUMP JUMPDEST PUSH1 0x1 SLOAD PUSH20 0xFFFFFFFFFFFFFFFFFFFFFFFFFFFFFFFFFFFFFFFF AND CALLER EQ PUSH2 0xAF3 JUMPI PUSH1 0x40 MLOAD PUSH32 0x8C379A000000000000000000000000000000000000000000000000000000000 DUP2 MSTORE PUSH1 0x4 ADD DUP1 DUP1 PUSH1 0x20 ADD DUP3 DUP2 SUB DUP3 MSTORE PUSH1 0x23 DUP2 MSTORE PUSH1 0x20 ADD DUP1 PUSH2 0x2C05 PUSH1 0x23 SWAP2 CODECOPY PUSH1 0x40 ADD SWAP2 POP POP PUSH1 0x40 MLOAD DUP1 SWAP2 SUB SWAP1 REVERT JUMPDEST PUSH1 0x2 SLOAD TIMESTAMP LT ISZERO PUSH2 0xB4E JUMPI PUSH1 0x40 MLOAD PUSH32 0x8C379A000000000000000000000000000000000000000000000000000000000 DUP2 MSTORE PUSH1 0x4 ADD DUP1 DUP1 PUSH1 0x20 ADD DUP3 DUP2 SUB DUP3 MSTORE PUSH1 0x22 DUP2 MSTORE PUSH1 0x20 ADD DUP1 PUSH2 0x2D39 PUSH1 0x22 SWAP2 CODECOPY PUSH1 0x40 ADD SWAP2 POP POP PUSH1 0x40 MLOAD DUP1 SWAP2 SUB SWAP1 REVERT JUMPDEST PUSH20 0xFFFFFFFFFFFFFFFFFFFFFFFFFFFFFFFFFFFFFFFF DUP3 AND PUSH2 0xBBA JUMPI PUSH1 0x40 MLOAD PUSH32 0x8C379A000000000000000000000000000000000000000000000000000000000 DUP2 MSTORE PUSH1 0x4 ADD DUP1 DUP1 PUSH1 0x20 ADD DUP3 DUP2 SUB DUP3 MSTORE PUSH1 0x2E DUP2 MSTORE PUSH1 0x20 ADD DUP1 PUSH2 0x2BA8 PUSH1 0x2E SWAP2 CODECOPY PUSH1 0x40 ADD SWAP2 POP POP PUSH1 0x40 MLOAD DUP1 SWAP2 SUB SWAP1 REVERT JUMPDEST PUSH2 0xBC8 TIMESTAMP PUSH4 0x1E13380 PUSH2 0x215D JUMP JUMPDEST PUSH1 0x2 DUP2 SWAP1 SSTORE POP PUSH1 0x0 PUSH2 0xBF2 DUP3 PUSH1 0x40 MLOAD DUP1 PUSH1 0x60 ADD PUSH1 0x40 MSTORE DUP1 PUSH1 0x21 DUP2 MSTORE PUSH1 0x20 ADD PUSH2 0x2CCE PUSH1 0x21 SWAP2 CODECOPY PUSH2 0x1D6E JUMP JUMPDEST SWAP1 POP PUSH2 0xC0E PUSH2 0xC07 PUSH1 0x0 SLOAD PUSH1 0x2 PUSH1 0xFF AND PUSH2 0x21D1 JUMP JUMPDEST PUSH1 0x64 PUSH2 0x2244 JUMP JUMPDEST DUP2 PUSH12 0xFFFFFFFFFFFFFFFFFFFFFFFF AND GT ISZERO PUSH2 0xC8A JUMPI PUSH1 0x40 DUP1 MLOAD PUSH32 0x8C379A000000000000000000000000000000000000000000000000000000000 DUP2 MSTORE PUSH1 0x20 PUSH1 0x4 DUP3 ADD MSTORE PUSH1 0x1C PUSH1 0x24 DUP3 ADD MSTORE PUSH32 0x5753473A3A6D696E743A206578636565646564206D696E742063617000000000 PUSH1 0x44 DUP3 ADD MSTORE SWAP1 MLOAD SWAP1 DUP2 SWAP1 SUB PUSH1 0x64 ADD SWAP1 REVERT JUMPDEST PUSH2 0xCC5 PUSH2 0xCA7 PUSH1 0x0 SLOAD DUP4 PUSH12 0xFFFFFFFFFFFFFFFFFFFFFFFF AND PUSH2 0x215D JUMP JUMPDEST PUSH1 0x40 MLOAD DUP1 PUSH1 0x60 ADD PUSH1 0x40 MSTORE DUP1 PUSH1 0x26 DUP2 MSTORE PUSH1 0x20 ADD PUSH2 0x29EC PUSH1 0x26 SWAP2 CODECOPY PUSH2 0x1D6E JUMP JUMPDEST PUSH12 0xFFFFFFFFFFFFFFFFFFFFFFFF SWAP1 DUP2 AND PUSH1 0x0 SWAP1 DUP2 SSTORE PUSH20 0xFFFFFFFFFFFFFFFFFFFFFFFFFFFFFFFFFFFFFFFF DUP6 AND DUP2 MSTORE PUSH1 0x4 PUSH1 0x20 SWAP1 DUP2 MSTORE PUSH1 0x40 SWAP2 DUP3 SWAP1 KECCAK256 SLOAD DUP3 MLOAD PUSH1 0x60 DUP2 ADD SWAP1 SWAP4 MSTORE PUSH1 0x24 DUP1 DUP5 MSTORE PUSH2 0xD29 SWAP5 SWAP2 SWAP1 SWAP2 AND SWAP3 DUP6 SWAP3 SWAP1 SWAP2 SWAP1 PUSH2 0x2CAA SWAP1 DUP4 ADD CODECOPY PUSH2 0x2286 JUMP JUMPDEST PUSH20 0xFFFFFFFFFFFFFFFFFFFFFFFFFFFFFFFFFFFFFFFF DUP5 AND PUSH1 0x0 DUP2 DUP2 MSTORE PUSH1 0x4 PUSH1 0x20 SWAP1 DUP2 MSTORE PUSH1 0x40 DUP1 DUP4 KECCAK256 DUP1 SLOAD PUSH32 0xFFFFFFFFFFFFFFFFFFFFFFFFFFFFFFFFFFFFFFFF000000000000000000000000 AND PUSH12 0xFFFFFFFFFFFFFFFFFFFFFFFF SWAP7 DUP8 AND OR SWAP1 SSTORE DUP1 MLOAD SWAP5 DUP7 AND DUP6 MSTORE MLOAD SWAP3 SWAP4 SWAP2 SWAP3 PUSH32 0xDDF252AD1BE2C89B69C2B068FC378DAA952BA7F163C4A11628F55A4DF523B3EF SWAP3 DUP2 SWAP1 SUB SWAP1 SWAP2 ADD SWAP1 LOG3 PUSH20 0xFFFFFFFFFFFFFFFFFFFFFFFFFFFFFFFFFFFFFFFF DUP1 DUP5 AND PUSH1 0x0 SWAP1 DUP2 MSTORE PUSH1 0x5 PUSH1 0x20 MSTORE PUSH1 0x40 DUP2 KECCAK256 SLOAD PUSH2 0xDF0 SWAP3 AND DUP4 PUSH2 0x230F JUMP JUMPDEST POP POP POP JUMP JUMPDEST PUSH1 0x5 PUSH1 0x20 MSTORE PUSH1 0x0 SWAP1 DUP2 MSTORE PUSH1 0x40 SWAP1 KECCAK256 SLOAD PUSH20 0xFFFFFFFFFFFFFFFFFFFFFFFFFFFFFFFFFFFFFFFF AND DUP2 JUMP JUMPDEST PUSH4 0x1E13380 DUP2 JUMP JUMPDEST PUSH2 0xE2F CALLER DUP3 PUSH2 0x2556 JUMP JUMPDEST POP JUMP JUMPDEST PUSH1 0x7 PUSH1 0x20 MSTORE PUSH1 0x0 SWAP1 DUP2 MSTORE PUSH1 0x40 SWAP1 KECCAK256 SLOAD PUSH4 0xFFFFFFFF AND DUP2 JUMP JUMPDEST PUSH20 0xFFFFFFFFFFFFFFFFFFFFFFFFFFFFFFFFFFFFFFFF AND PUSH1 0x0 SWAP1 DUP2 MSTORE PUSH1 0x4 PUSH1 0x20 MSTORE PUSH1 0x40 SWAP1 KECCAK256 SLOAD PUSH12 0xFFFFFFFFFFFFFFFFFFFFFFFF AND SWAP1 JUMP JUMPDEST PUSH1 0x2 DUP2 JUMP JUMPDEST PUSH1 0x0 NUMBER DUP3 LT PUSH2 0xEDF JUMPI PUSH1 0x40 MLOAD PUSH32 0x8C379A000000000000000000000000000000000000000000000000000000000 DUP2 MSTORE PUSH1 0x4 ADD DUP1 DUP1 PUSH1 0x20 ADD DUP3 DUP2 SUB DUP3 MSTORE PUSH1 0x26 DUP2 MSTORE PUSH1 0x20 ADD DUP1 PUSH2 0x2B61 PUSH1 0x26 SWAP2 CODECOPY PUSH1 0x40 ADD SWAP2 POP POP PUSH1 0x40 MLOAD DUP1 SWAP2 SUB SWAP1 REVERT JUMPDEST PUSH20 0xFFFFFFFFFFFFFFFFFFFFFFFFFFFFFFFFFFFFFFFF DUP4 AND PUSH1 0x0 SWAP1 DUP2 MSTORE PUSH1 0x7 PUSH1 0x20 MSTORE PUSH1 0x40 SWAP1 KECCAK256 SLOAD PUSH4 0xFFFFFFFF AND DUP1 PUSH2 0xF1A JUMPI PUSH1 0x0 SWAP2 POP POP PUSH2 0x884 JUMP JUMPDEST PUSH20 0xFFFFFFFFFFFFFFFFFFFFFFFFFFFFFFFFFFFFFFFF DUP5 AND PUSH1 0x0 SWAP1 DUP2 MSTORE PUSH1 0x6 PUSH1 0x20 SWAP1 DUP2 MSTORE PUSH1 0x40 DUP1 DUP4 KECCAK256 PUSH4 0xFFFFFFFF PUSH32 0xFFFFFFFFFFFFFFFFFFFFFFFFFFFFFFFFFFFFFFFFFFFFFFFFFFFFFFFFFFFFFFFF DUP7 ADD DUP2 AND DUP6 MSTORE SWAP3 MSTORE SWAP1 SWAP2 KECCAK256 SLOAD AND DUP4 LT PUSH2 0xFF2 JUMPI PUSH20 0xFFFFFFFFFFFFFFFFFFFFFFFFFFFFFFFFFFFFFFFF DUP5 AND PUSH1 0x0 SWAP1 DUP2 MSTORE PUSH1 0x6 PUSH1 0x20 SWAP1 DUP2 MSTORE PUSH1 0x40 DUP1 DUP4 KECCAK256 PUSH32 0xFFFFFFFFFFFFFFFFFFFFFFFFFFFFFFFFFFFFFFFFFFFFFFFFFFFFFFFFFFFFFFFF SWAP5 SWAP1 SWAP5 ADD PUSH4 0xFFFFFFFF AND DUP4 MSTORE SWAP3 SWAP1 MSTORE KECCAK256 SLOAD PUSH5 0x100000000 SWAP1 DIV PUSH12 0xFFFFFFFFFFFFFFFFFFFFFFFF AND SWAP1 POP PUSH2 0x884 JUMP JUMPDEST PUSH20 0xFFFFFFFFFFFFFFFFFFFFFFFFFFFFFFFFFFFFFFFF DUP5 AND PUSH1 0x0 SWAP1 DUP2 MSTORE PUSH1 0x6 PUSH1 0x20 SWAP1 DUP2 MSTORE PUSH1 0x40 DUP1 DUP4 KECCAK256 DUP4 DUP1 MSTORE SWAP1 SWAP2 MSTORE SWAP1 KECCAK256 SLOAD PUSH4 0xFFFFFFFF AND DUP4 LT ISZERO PUSH2 0x103A JUMPI PUSH1 0x0 SWAP2 POP POP PUSH2 0x884 JUMP JUMPDEST PUSH1 0x0 PUSH32 0xFFFFFFFFFFFFFFFFFFFFFFFFFFFFFFFFFFFFFFFFFFFFFFFFFFFFFFFFFFFFFFFF DUP3 ADD JUMPDEST DUP2 PUSH4 0xFFFFFFFF AND DUP2 PUSH4 0xFFFFFFFF AND GT ISZERO PUSH2 0x112E JUMPI PUSH1 0x2 DUP3 DUP3 SUB PUSH4 0xFFFFFFFF AND DIV DUP2 SUB PUSH2 0x108A PUSH2 0x2976 JUMP JUMPDEST POP PUSH20 0xFFFFFFFFFFFFFFFFFFFFFFFFFFFFFFFFFFFFFFFF DUP8 AND PUSH1 0x0 SWAP1 DUP2 MSTORE PUSH1 0x6 PUSH1 0x20 SWAP1 DUP2 MSTORE PUSH1 0x40 DUP1 DUP4 KECCAK256 PUSH4 0xFFFFFFFF DUP6 DUP2 AND DUP6 MSTORE SWAP1 DUP4 MSTORE SWAP3 DUP2 SWAP1 KECCAK256 DUP2 MLOAD DUP1 DUP4 ADD SWAP1 SWAP3 MSTORE SLOAD SWAP3 DUP4 AND DUP1 DUP3 MSTORE PUSH5 0x100000000 SWAP1 SWAP4 DIV PUSH12 0xFFFFFFFFFFFFFFFFFFFFFFFF AND SWAP2 DUP2 ADD SWAP2 SWAP1 SWAP2 MSTORE SWAP1 DUP8 EQ ISZERO PUSH2 0x1109 JUMPI PUSH1 0x20 ADD MLOAD SWAP5 POP PUSH2 0x884 SWAP4 POP POP POP POP JUMP JUMPDEST DUP1 MLOAD PUSH4 0xFFFFFFFF AND DUP8 GT ISZERO PUSH2 0x1120 JUMPI DUP2 SWAP4 POP PUSH2 0x1127 JUMP JUMPDEST PUSH1 0x1 DUP3 SUB SWAP3 POP JUMPDEST POP POP PUSH2 0x1060 JUMP JUMPDEST POP PUSH20 0xFFFFFFFFFFFFFFFFFFFFFFFFFFFFFFFFFFFFFFFF DUP6 AND PUSH1 0x0 SWAP1 DUP2 MSTORE PUSH1 0x6 PUSH1 0x20 SWAP1 DUP2 MSTORE PUSH1 0x40 DUP1 DUP4 KECCAK256 PUSH4 0xFFFFFFFF SWAP1 SWAP5 AND DUP4 MSTORE SWAP3 SWAP1 MSTORE KECCAK256 SLOAD PUSH12 0xFFFFFFFFFFFFFFFFFFFFFFFF PUSH5 0x100000000 SWAP1 SWAP2 DIV AND SWAP2 POP POP SWAP3 SWAP2 POP POP JUMP JUMPDEST PUSH1 0x8 PUSH1 0x20 MSTORE PUSH1 0x0 SWAP1 DUP2 MSTORE PUSH1 0x40 SWAP1 KECCAK256 SLOAD DUP2 JUMP JUMPDEST PUSH1 0x40 MLOAD DUP1 PUSH1 0x40 ADD PUSH1 0x40 MSTORE DUP1 PUSH1 0x3 DUP2 MSTORE PUSH1 0x20 ADD PUSH32 0x5753450000000000000000000000000000000000000000000000000000000000 DUP2 MSTORE POP DUP2 JUMP JUMPDEST PUSH1 0x0 DUP1 PUSH2 0x11F6 DUP4 PUSH1 0x40 MLOAD DUP1 PUSH1 0x60 ADD PUSH1 0x40 MSTORE DUP1 PUSH1 0x25 DUP2 MSTORE PUSH1 0x20 ADD PUSH2 0x2CEF PUSH1 0x25 SWAP2 CODECOPY PUSH2 0x1D6E JUMP JUMPDEST SWAP1 POP PUSH2 0x1203 CALLER DUP6 DUP4 PUSH2 0x1EBC JUMP JUMPDEST POP PUSH1 0x1 SWAP4 SWAP3 POP POP POP JUMP JUMPDEST PUSH20 0xFFFFFFFFFFFFFFFFFFFFFFFFFFFFFFFFFFFFFFFF DUP2 AND PUSH1 0x0 SWAP1 DUP2 MSTORE PUSH1 0x7 PUSH1 0x20 MSTORE PUSH1 0x40 DUP2 KECCAK256 SLOAD PUSH4 0xFFFFFFFF AND DUP1 PUSH2 0x1245 JUMPI PUSH1 0x0 PUSH2 0x12B5 JUMP JUMPDEST PUSH20 0xFFFFFFFFFFFFFFFFFFFFFFFFFFFFFFFFFFFFFFFF DUP4 AND PUSH1 0x0 SWAP1 DUP2 MSTORE PUSH1 0x6 PUSH1 0x20 SWAP1 DUP2 MSTORE PUSH1 0x40 DUP1 DUP4 KECCAK256 PUSH32 0xFFFFFFFFFFFFFFFFFFFFFFFFFFFFFFFFFFFFFFFFFFFFFFFFFFFFFFFFFFFFFFFF DUP6 ADD PUSH4 0xFFFFFFFF AND DUP5 MSTORE SWAP1 SWAP2 MSTORE SWAP1 KECCAK256 SLOAD PUSH5 0x100000000 SWAP1 DIV PUSH12 0xFFFFFFFFFFFFFFFFFFFFFFFF AND JUMPDEST SWAP4 SWAP3 POP POP POP JUMP JUMPDEST PUSH1 0x40 DUP1 MLOAD DUP1 DUP3 ADD SWAP1 SWAP2 MSTORE PUSH1 0x9 DUP2 MSTORE PUSH32 0x5768697465537761700000000000000000000000000000000000000000000000 PUSH1 0x20 SWAP1 SWAP2 ADD MSTORE PUSH1 0x0 PUSH32 0x8CAD95687BA82C2CE50E74F7B754645E5117C3A5BEC8151C0726D5857980A866 PUSH32 0x61703DC3790C56209E077E2CEF46210302A1533403439BFE37F3F85237F86A1B PUSH2 0x133D PUSH2 0x260A JUMP JUMPDEST PUSH1 0x40 DUP1 MLOAD PUSH1 0x20 DUP1 DUP3 ADD SWAP6 SWAP1 SWAP6 MSTORE DUP1 DUP3 ADD SWAP4 SWAP1 SWAP4 MSTORE PUSH1 0x60 DUP4 ADD SWAP2 SWAP1 SWAP2 MSTORE ADDRESS PUSH1 0x80 DUP1 DUP5 ADD SWAP2 SWAP1 SWAP2 MSTORE DUP2 MLOAD DUP1 DUP5 SUB SWAP1 SWAP2 ADD DUP2 MSTORE PUSH1 0xA0 DUP4 ADD DUP3 MSTORE DUP1 MLOAD SWAP1 DUP5 ADD KECCAK256 PUSH32 0xE48329057BFD03D55E49B547132E39CFFD9C1820AD7B9D4C5307691425D15ADF PUSH1 0xC0 DUP5 ADD MSTORE PUSH20 0xFFFFFFFFFFFFFFFFFFFFFFFFFFFFFFFFFFFFFFFF DUP12 AND PUSH1 0xE0 DUP5 ADD MSTORE PUSH2 0x100 DUP4 ADD DUP11 SWAP1 MSTORE PUSH2 0x120 DUP1 DUP5 ADD DUP11 SWAP1 MSTORE DUP3 MLOAD DUP1 DUP6 SUB SWAP1 SWAP2 ADD DUP2 MSTORE PUSH2 0x140 DUP5 ADD DUP4 MSTORE DUP1 MLOAD SWAP1 DUP6 ADD KECCAK256 PUSH32 0x1901000000000000000000000000000000000000000000000000000000000000 PUSH2 0x160 DUP6 ADD MSTORE PUSH2 0x162 DUP5 ADD DUP3 SWAP1 MSTORE PUSH2 0x182 DUP1 DUP6 ADD DUP3 SWAP1 MSTORE DUP4 MLOAD DUP1 DUP7 SUB SWAP1 SWAP2 ADD DUP2 MSTORE PUSH2 0x1A2 DUP6 ADD DUP1 DUP6 MSTORE DUP2 MLOAD SWAP2 DUP8 ADD SWAP2 SWAP1 SWAP2 KECCAK256 PUSH1 0x0 SWAP2 DUP3 SWAP1 MSTORE PUSH2 0x1C2 DUP7 ADD DUP1 DUP7 MSTORE DUP2 SWAP1 MSTORE PUSH1 0xFF DUP12 AND PUSH2 0x1E2 DUP8 ADD MSTORE PUSH2 0x202 DUP7 ADD DUP11 SWAP1 MSTORE PUSH2 0x222 DUP7 ADD DUP10 SWAP1 MSTORE SWAP4 MLOAD SWAP3 SWAP7 POP SWAP1 SWAP5 SWAP3 SWAP4 SWAP1 SWAP3 PUSH1 0x1 SWAP3 PUSH2 0x242 DUP1 DUP5 ADD SWAP4 PUSH32 0xFFFFFFFFFFFFFFFFFFFFFFFFFFFFFFFFFFFFFFFFFFFFFFFFFFFFFFFFFFFFFFE0 DUP4 ADD SWAP3 SWAP1 DUP2 SWAP1 SUB SWAP1 SWAP2 ADD SWAP1 DUP6 GAS STATICCALL ISZERO DUP1 ISZERO PUSH2 0x14B6 JUMPI RETURNDATASIZE PUSH1 0x0 DUP1 RETURNDATACOPY RETURNDATASIZE PUSH1 0x0 REVERT JUMPDEST POP POP PUSH1 0x40 MLOAD PUSH32 0xFFFFFFFFFFFFFFFFFFFFFFFFFFFFFFFFFFFFFFFFFFFFFFFFFFFFFFFFFFFFFFE0 ADD MLOAD SWAP2 POP POP PUSH20 0xFFFFFFFFFFFFFFFFFFFFFFFFFFFFFFFFFFFFFFFF DUP2 AND PUSH2 0x154D JUMPI PUSH1 0x40 MLOAD PUSH32 0x8C379A000000000000000000000000000000000000000000000000000000000 DUP2 MSTORE PUSH1 0x4 ADD DUP1 DUP1 PUSH1 0x20 ADD DUP3 DUP2 SUB DUP3 MSTORE PUSH1 0x25 DUP2 MSTORE PUSH1 0x20 ADD DUP1 PUSH2 0x2A4F PUSH1 0x25 SWAP2 CODECOPY PUSH1 0x40 ADD SWAP2 POP POP PUSH1 0x40 MLOAD DUP1 SWAP2 SUB SWAP1 REVERT JUMPDEST PUSH20 0xFFFFFFFFFFFFFFFFFFFFFFFFFFFFFFFFFFFFFFFF DUP2 AND PUSH1 0x0 SWAP1 DUP2 MSTORE PUSH1 0x8 PUSH1 0x20 MSTORE PUSH1 0x40 SWAP1 KECCAK256 DUP1 SLOAD PUSH1 0x1 DUP2 ADD SWAP1 SWAP2 SSTORE DUP10 EQ PUSH2 0x15D2 JUMPI PUSH1 0x40 MLOAD PUSH32 0x8C379A000000000000000000000000000000000000000000000000000000000 DUP2 MSTORE PUSH1 0x4 ADD DUP1 DUP1 PUSH1 0x20 ADD DUP3 DUP2 SUB DUP3 MSTORE PUSH1 0x21 DUP2 MSTORE PUSH1 0x20 ADD DUP1 PUSH2 0x2B07 PUSH1 0x21 SWAP2 CODECOPY PUSH1 0x40 ADD SWAP2 POP POP PUSH1 0x40 MLOAD DUP1 SWAP2 SUB SWAP1 REVERT JUMPDEST DUP8 TIMESTAMP GT ISZERO PUSH2 0x162B JUMPI PUSH1 0x40 MLOAD PUSH32 0x8C379A000000000000000000000000000000000000000000000000000000000 DUP2 MSTORE PUSH1 0x4 ADD DUP1 DUP1 PUSH1 0x20 ADD DUP3 DUP2 SUB DUP3 MSTORE PUSH1 0x25 DUP2 MSTORE PUSH1 0x20 ADD DUP1 PUSH2 0x2D14 PUSH1 0x25 SWAP2 CODECOPY PUSH1 0x40 ADD SWAP2 POP POP PUSH1 0x40 MLOAD DUP1 SWAP2 SUB SWAP1 REVERT JUMPDEST PUSH2 0x1635 DUP2 DUP12 PUSH2 0x2556 JUMP JUMPDEST POP POP POP POP JUMPDEST POP POP POP POP POP POP JUMP JUMPDEST PUSH1 0x0 PUSH32 0xFFFFFFFFFFFFFFFFFFFFFFFFFFFFFFFFFFFFFFFFFFFFFFFFFFFFFFFFFFFFFFFF DUP7 EQ ISZERO PUSH2 0x1693 JUMPI POP PUSH32 0xFFFFFFFFFFFFFFFFFFFFFFFFFFFFFFFFFFFFFFFFFFFFFFFFFFFFFFFFFFFFFFFF PUSH2 0x16B8 JUMP JUMPDEST PUSH2 0x16B5 DUP7 PUSH1 0x40 MLOAD DUP1 PUSH1 0x60 ADD PUSH1 0x40 MSTORE DUP1 PUSH1 0x23 DUP2 MSTORE PUSH1 0x20 ADD PUSH2 0x298E PUSH1 0x23 SWAP2 CODECOPY PUSH2 0x1D6E JUMP JUMPDEST SWAP1 POP JUMPDEST PUSH1 0x40 DUP1 MLOAD DUP1 DUP3 ADD SWAP1 SWAP2 MSTORE PUSH1 0x9 DUP2 MSTORE PUSH32 0x5768697465537761700000000000000000000000000000000000000000000000 PUSH1 0x20 SWAP1 SWAP2 ADD MSTORE PUSH1 0x0 PUSH32 0x8CAD95687BA82C2CE50E74F7B754645E5117C3A5BEC8151C0726D5857980A866 PUSH32 0x61703DC3790C56209E077E2CEF46210302A1533403439BFE37F3F85237F86A1B PUSH2 0x1739 PUSH2 0x260A JUMP JUMPDEST PUSH1 0x40 DUP1 MLOAD PUSH1 0x20 DUP1 DUP3 ADD SWAP6 SWAP1 SWAP6 MSTORE DUP1 DUP3 ADD SWAP4 SWAP1 SWAP4 MSTORE PUSH1 0x60 DUP4 ADD SWAP2 SWAP1 SWAP2 MSTORE ADDRESS PUSH1 0x80 DUP1 DUP5 ADD SWAP2 SWAP1 SWAP2 MSTORE DUP2 MLOAD DUP1 DUP5 SUB SWAP1 SWAP2 ADD DUP2 MSTORE PUSH1 0xA0 DUP4 ADD DUP3 MSTORE DUP1 MLOAD SWAP1 DUP5 ADD KECCAK256 PUSH20 0xFFFFFFFFFFFFFFFFFFFFFFFFFFFFFFFFFFFFFFFF DUP14 DUP2 AND PUSH1 0x0 DUP2 DUP2 MSTORE PUSH1 0x8 DUP8 MSTORE DUP5 DUP2 KECCAK256 DUP1 SLOAD PUSH1 0x1 DUP1 DUP3 ADD SWAP1 SWAP3 SSTORE PUSH32 0x6E71EDAE12B1B97F4D1F60370FEF10105FA2FAAE0126114A169C64845D6126C9 PUSH1 0xC0 DUP10 ADD MSTORE PUSH1 0xE0 DUP9 ADD SWAP4 SWAP1 SWAP4 MSTORE SWAP3 DUP16 AND PUSH2 0x100 DUP8 ADD MSTORE PUSH2 0x120 DUP7 ADD DUP15 SWAP1 MSTORE PUSH2 0x140 DUP7 ADD SWAP2 SWAP1 SWAP2 MSTORE PUSH2 0x160 DUP1 DUP7 ADD DUP14 SWAP1 MSTORE DUP5 MLOAD DUP1 DUP8 SUB SWAP1 SWAP2 ADD DUP2 MSTORE PUSH2 0x180 DUP7 ADD DUP6 MSTORE DUP1 MLOAD SWAP1 DUP8 ADD KECCAK256 PUSH32 0x1901000000000000000000000000000000000000000000000000000000000000 PUSH2 0x1A0 DUP8 ADD MSTORE PUSH2 0x1A2 DUP7 ADD DUP5 SWAP1 MSTORE PUSH2 0x1C2 DUP1 DUP8 ADD DUP3 SWAP1 MSTORE DUP6 MLOAD DUP1 DUP9 SUB SWAP1 SWAP2 ADD DUP2 MSTORE PUSH2 0x1E2 DUP8 ADD DUP1 DUP8 MSTORE DUP2 MLOAD SWAP2 DUP10 ADD SWAP2 SWAP1 SWAP2 KECCAK256 SWAP1 DUP4 SWAP1 MSTORE PUSH2 0x202 DUP8 ADD DUP1 DUP8 MSTORE DUP2 SWAP1 MSTORE PUSH1 0xFF DUP14 AND PUSH2 0x222 DUP9 ADD MSTORE PUSH2 0x242 DUP8 ADD DUP13 SWAP1 MSTORE PUSH2 0x262 DUP8 ADD DUP12 SWAP1 MSTORE SWAP5 MLOAD SWAP4 SWAP8 POP SWAP6 SWAP4 SWAP5 SWAP1 SWAP4 SWAP2 SWAP3 PUSH2 0x282 DUP1 DUP4 ADD SWAP4 SWAP3 PUSH32 0xFFFFFFFFFFFFFFFFFFFFFFFFFFFFFFFFFFFFFFFFFFFFFFFFFFFFFFFFFFFFFFE0 DUP4 ADD SWAP3 SWAP1 DUP2 SWAP1 SUB SWAP1 SWAP2 ADD SWAP1 DUP6 GAS STATICCALL ISZERO DUP1 ISZERO PUSH2 0x18DB JUMPI RETURNDATASIZE PUSH1 0x0 DUP1 RETURNDATACOPY RETURNDATASIZE PUSH1 0x0 REVERT JUMPDEST POP POP PUSH1 0x40 MLOAD PUSH32 0xFFFFFFFFFFFFFFFFFFFFFFFFFFFFFFFFFFFFFFFFFFFFFFFFFFFFFFFFFFFFFFE0 ADD MLOAD SWAP2 POP POP PUSH20 0xFFFFFFFFFFFFFFFFFFFFFFFFFFFFFFFFFFFFFFFF DUP2 AND PUSH2 0x1988 JUMPI PUSH1 0x40 DUP1 MLOAD PUSH32 0x8C379A000000000000000000000000000000000000000000000000000000000 DUP2 MSTORE PUSH1 0x20 PUSH1 0x4 DUP3 ADD MSTORE PUSH1 0x1E PUSH1 0x24 DUP3 ADD MSTORE PUSH32 0x5753473A3A7065726D69743A20696E76616C6964207369676E61747572650000 PUSH1 0x44 DUP3 ADD MSTORE SWAP1 MLOAD SWAP1 DUP2 SWAP1 SUB PUSH1 0x64 ADD SWAP1 REVERT JUMPDEST DUP12 PUSH20 0xFFFFFFFFFFFFFFFFFFFFFFFFFFFFFFFFFFFFFFFF AND DUP2 PUSH20 0xFFFFFFFFFFFFFFFFFFFFFFFFFFFFFFFFFFFFFFFF AND EQ PUSH2 0x1A22 JUMPI PUSH1 0x40 DUP1 MLOAD PUSH32 0x8C379A000000000000000000000000000000000000000000000000000000000 DUP2 MSTORE PUSH1 0x20 PUSH1 0x4 DUP3 ADD MSTORE PUSH1 0x19 PUSH1 0x24 DUP3 ADD MSTORE PUSH32 0x5753473A3A7065726D69743A20756E617574686F72697A656400000000000000 PUSH1 0x44 DUP3 ADD MSTORE SWAP1 MLOAD SWAP1 DUP2 SWAP1 SUB PUSH1 0x64 ADD SWAP1 REVERT JUMPDEST DUP9 TIMESTAMP GT ISZERO PUSH2 0x1A91 JUMPI PUSH1 0x40 DUP1 MLOAD PUSH32 0x8C379A000000000000000000000000000000000000000000000000000000000 DUP2 MSTORE PUSH1 0x20 PUSH1 0x4 DUP3 ADD MSTORE PUSH1 0x1E PUSH1 0x24 DUP3 ADD MSTORE PUSH32 0x5753473A3A7065726D69743A207369676E617475726520657870697265640000 PUSH1 0x44 DUP3 ADD MSTORE SWAP1 MLOAD SWAP1 DUP2 SWAP1 SUB PUSH1 0x64 ADD SWAP1 REVERT JUMPDEST DUP5 PUSH1 0x3 PUSH1 0x0 DUP15 PUSH20 0xFFFFFFFFFFFFFFFFFFFFFFFFFFFFFFFFFFFFFFFF AND PUSH20 0xFFFFFFFFFFFFFFFFFFFFFFFFFFFFFFFFFFFFFFFF AND DUP2 MSTORE PUSH1 0x20 ADD SWAP1 DUP2 MSTORE PUSH1 0x20 ADD PUSH1 0x0 KECCAK256 PUSH1 0x0 DUP14 PUSH20 0xFFFFFFFFFFFFFFFFFFFFFFFFFFFFFFFFFFFFFFFF AND PUSH20 0xFFFFFFFFFFFFFFFFFFFFFFFFFFFFFFFFFFFFFFFF AND DUP2 MSTORE PUSH1 0x20 ADD SWAP1 DUP2 MSTORE PUSH1 0x20 ADD PUSH1 0x0 KECCAK256 PUSH1 0x0 PUSH2 0x100 EXP DUP2 SLOAD DUP2 PUSH12 0xFFFFFFFFFFFFFFFFFFFFFFFF MUL NOT AND SWAP1 DUP4 PUSH12 0xFFFFFFFFFFFFFFFFFFFFFFFF AND MUL OR SWAP1 SSTORE POP DUP11 PUSH20 0xFFFFFFFFFFFFFFFFFFFFFFFFFFFFFFFFFFFFFFFF AND DUP13 PUSH20 0xFFFFFFFFFFFFFFFFFFFFFFFFFFFFFFFFFFFFFFFF AND PUSH32 0x8C5BE1E5EBEC7D5BD14F71427D1E84F3DD0314C0F7B2291E5B200AC8C7C3B925 DUP8 PUSH1 0x40 MLOAD DUP1 DUP3 PUSH12 0xFFFFFFFFFFFFFFFFFFFFFFFF AND DUP2 MSTORE PUSH1 0x20 ADD SWAP2 POP POP PUSH1 0x40 MLOAD DUP1 SWAP2 SUB SWAP1 LOG3 POP POP POP POP POP POP POP POP POP POP POP POP JUMP JUMPDEST PUSH20 0xFFFFFFFFFFFFFFFFFFFFFFFFFFFFFFFFFFFFFFFF SWAP2 DUP3 AND PUSH1 0x0 SWAP1 DUP2 MSTORE PUSH1 0x3 PUSH1 0x20 SWAP1 DUP2 MSTORE PUSH1 0x40 DUP1 DUP4 KECCAK256 SWAP4 SWAP1 SWAP5 AND DUP3 MSTORE SWAP2 SWAP1 SWAP2 MSTORE KECCAK256 SLOAD PUSH12 0xFFFFFFFFFFFFFFFFFFFFFFFF AND SWAP1 JUMP JUMPDEST PUSH32 0xE48329057BFD03D55E49B547132E39CFFD9C1820AD7B9D4C5307691425D15ADF DUP2 JUMP JUMPDEST PUSH1 0x6 PUSH1 0x20 SWAP1 DUP2 MSTORE PUSH1 0x0 SWAP3 DUP4 MSTORE PUSH1 0x40 DUP1 DUP5 KECCAK256 SWAP1 SWAP2 MSTORE SWAP1 DUP3 MSTORE SWAP1 KECCAK256 SLOAD PUSH4 0xFFFFFFFF DUP2 AND SWAP1 PUSH5 0x100000000 SWAP1 DIV PUSH12 0xFFFFFFFFFFFFFFFFFFFFFFFF AND DUP3 JUMP JUMPDEST PUSH1 0x1 SLOAD PUSH20 0xFFFFFFFFFFFFFFFFFFFFFFFFFFFFFFFFFFFFFFFF AND CALLER EQ PUSH2 0x1CD2 JUMPI PUSH1 0x40 MLOAD PUSH32 0x8C379A000000000000000000000000000000000000000000000000000000000 DUP2 MSTORE PUSH1 0x4 ADD DUP1 DUP1 PUSH1 0x20 ADD DUP3 DUP2 SUB DUP3 MSTORE PUSH1 0x3D DUP2 MSTORE PUSH1 0x20 ADD DUP1 PUSH2 0x2A12 PUSH1 0x3D SWAP2 CODECOPY PUSH1 0x40 ADD SWAP2 POP POP PUSH1 0x40 MLOAD DUP1 SWAP2 SUB SWAP1 REVERT JUMPDEST PUSH1 0x1 SLOAD PUSH1 0x40 DUP1 MLOAD PUSH20 0xFFFFFFFFFFFFFFFFFFFFFFFFFFFFFFFFFFFFFFFF SWAP3 DUP4 AND DUP2 MSTORE SWAP2 DUP4 AND PUSH1 0x20 DUP4 ADD MSTORE DUP1 MLOAD PUSH32 0x3B0007EB941CF645526CBB3A4FDAECDA9D28CE4843167D9263B536A1F1EDC0F6 SWAP3 DUP2 SWAP1 SUB SWAP1 SWAP2 ADD SWAP1 LOG1 PUSH1 0x1 DUP1 SLOAD PUSH32 0xFFFFFFFFFFFFFFFFFFFFFFFF0000000000000000000000000000000000000000 AND PUSH20 0xFFFFFFFFFFFFFFFFFFFFFFFFFFFFFFFFFFFFFFFF SWAP3 SWAP1 SWAP3 AND SWAP2 SWAP1 SWAP2 OR SWAP1 SSTORE JUMP JUMPDEST PUSH1 0x0 DUP2 PUSH13 0x1000000000000000000000000 DUP5 LT PUSH2 0x1E23 JUMPI PUSH1 0x40 MLOAD PUSH32 0x8C379A000000000000000000000000000000000000000000000000000000000 DUP2 MSTORE PUSH1 0x4 ADD DUP1 DUP1 PUSH1 0x20 ADD DUP3 DUP2 SUB DUP3 MSTORE DUP4 DUP2 DUP2 MLOAD DUP2 MSTORE PUSH1 0x20 ADD SWAP2 POP DUP1 MLOAD SWAP1 PUSH1 0x20 ADD SWAP1 DUP1 DUP4 DUP4 PUSH1 0x0 JUMPDEST DUP4 DUP2 LT ISZERO PUSH2 0x1DE8 JUMPI DUP2 DUP2 ADD MLOAD DUP4 DUP3 ADD MSTORE PUSH1 0x20 ADD PUSH2 0x1DD0 JUMP JUMPDEST POP POP POP POP SWAP1 POP SWAP1 DUP2 ADD SWAP1 PUSH1 0x1F AND DUP1 ISZERO PUSH2 0x1E15 JUMPI DUP1 DUP3 SUB DUP1 MLOAD PUSH1 0x1 DUP4 PUSH1 0x20 SUB PUSH2 0x100 EXP SUB NOT AND DUP2 MSTORE PUSH1 0x20 ADD SWAP2 POP JUMPDEST POP SWAP3 POP POP POP PUSH1 0x40 MLOAD DUP1 SWAP2 SUB SWAP1 REVERT JUMPDEST POP SWAP2 SWAP3 SWAP2 POP POP JUMP JUMPDEST PUSH1 0x0 DUP4 PUSH12 0xFFFFFFFFFFFFFFFFFFFFFFFF AND DUP4 PUSH12 0xFFFFFFFFFFFFFFFFFFFFFFFF AND GT ISZERO DUP3 SWAP1 PUSH2 0x1EB4 JUMPI PUSH1 0x40 MLOAD PUSH32 0x8C379A000000000000000000000000000000000000000000000000000000000 DUP2 MSTORE PUSH1 0x20 PUSH1 0x4 DUP3 ADD DUP2 DUP2 MSTORE DUP4 MLOAD PUSH1 0x24 DUP5 ADD MSTORE DUP4 MLOAD SWAP1 SWAP3 DUP4 SWAP3 PUSH1 0x44 SWAP1 SWAP2 ADD SWAP2 SWAP1 DUP6 ADD SWAP1 DUP1 DUP4 DUP4 PUSH1 0x0 DUP4 ISZERO PUSH2 0x1DE8 JUMPI DUP2 DUP2 ADD MLOAD DUP4 DUP3 ADD MSTORE PUSH1 0x20 ADD PUSH2 0x1DD0 JUMP JUMPDEST POP POP POP SWAP1 SUB SWAP1 JUMP JUMPDEST PUSH20 0xFFFFFFFFFFFFFFFFFFFFFFFFFFFFFFFFFFFFFFFF DUP4 AND PUSH2 0x1F28 JUMPI PUSH1 0x40 MLOAD PUSH32 0x8C379A000000000000000000000000000000000000000000000000000000000 DUP2 MSTORE PUSH1 0x4 ADD DUP1 DUP1 PUSH1 0x20 ADD DUP3 DUP2 SUB DUP3 MSTORE PUSH1 0x3B DUP2 MSTORE PUSH1 0x20 ADD DUP1 PUSH2 0x29B1 PUSH1 0x3B SWAP2 CODECOPY PUSH1 0x40 ADD SWAP2 POP POP PUSH1 0x40 MLOAD DUP1 SWAP2 SUB SWAP1 REVERT JUMPDEST PUSH20 0xFFFFFFFFFFFFFFFFFFFFFFFFFFFFFFFFFFFFFFFF DUP3 AND PUSH2 0x1F94 JUMPI PUSH1 0x40 MLOAD PUSH32 0x8C379A000000000000000000000000000000000000000000000000000000000 DUP2 MSTORE PUSH1 0x4 ADD DUP1 DUP1 PUSH1 0x20 ADD DUP3 DUP2 SUB DUP3 MSTORE PUSH1 0x39 DUP2 MSTORE PUSH1 0x20 ADD DUP1 PUSH2 0x2B28 PUSH1 0x39 SWAP2 CODECOPY PUSH1 0x40 ADD SWAP2 POP POP PUSH1 0x40 MLOAD DUP1 SWAP2 SUB SWAP1 REVERT JUMPDEST PUSH20 0xFFFFFFFFFFFFFFFFFFFFFFFFFFFFFFFFFFFFFFFF DUP4 AND PUSH1 0x0 SWAP1 DUP2 MSTORE PUSH1 0x4 PUSH1 0x20 SWAP1 DUP2 MSTORE PUSH1 0x40 SWAP2 DUP3 SWAP1 KECCAK256 SLOAD DUP3 MLOAD PUSH1 0x60 DUP2 ADD SWAP1 SWAP4 MSTORE PUSH1 0x35 DUP1 DUP5 MSTORE PUSH2 0x1FF1 SWAP4 PUSH12 0xFFFFFFFFFFFFFFFFFFFFFFFF SWAP1 SWAP3 AND SWAP3 DUP6 SWAP3 SWAP2 SWAP1 PUSH2 0x2C28 SWAP1 DUP4 ADD CODECOPY PUSH2 0x1E2B JUMP JUMPDEST PUSH20 0xFFFFFFFFFFFFFFFFFFFFFFFFFFFFFFFFFFFFFFFF DUP5 DUP2 AND PUSH1 0x0 SWAP1 DUP2 MSTORE PUSH1 0x4 PUSH1 0x20 SWAP1 DUP2 MSTORE PUSH1 0x40 DUP1 DUP4 KECCAK256 DUP1 SLOAD PUSH32 0xFFFFFFFFFFFFFFFFFFFFFFFFFFFFFFFFFFFFFFFF000000000000000000000000 AND PUSH12 0xFFFFFFFFFFFFFFFFFFFFFFFF SWAP7 DUP8 AND OR SWAP1 SSTORE SWAP3 DUP7 AND DUP3 MSTORE SWAP1 DUP3 SWAP1 KECCAK256 SLOAD DUP3 MLOAD PUSH1 0x60 DUP2 ADD SWAP1 SWAP4 MSTORE PUSH1 0x2F DUP1 DUP5 MSTORE PUSH2 0x2083 SWAP5 SWAP2 SWAP1 SWAP2 AND SWAP3 DUP6 SWAP3 SWAP1 SWAP2 SWAP1 PUSH2 0x2BD6 SWAP1 DUP4 ADD CODECOPY PUSH2 0x2286 JUMP JUMPDEST PUSH20 0xFFFFFFFFFFFFFFFFFFFFFFFFFFFFFFFFFFFFFFFF DUP4 DUP2 AND PUSH1 0x0 DUP2 DUP2 MSTORE PUSH1 0x4 PUSH1 0x20 SWAP1 DUP2 MSTORE PUSH1 0x40 SWAP2 DUP3 SWAP1 KECCAK256 DUP1 SLOAD PUSH32 0xFFFFFFFFFFFFFFFFFFFFFFFFFFFFFFFFFFFFFFFF000000000000000000000000 AND PUSH12 0xFFFFFFFFFFFFFFFFFFFFFFFF SWAP7 DUP8 AND OR SWAP1 SSTORE DUP2 MLOAD SWAP5 DUP7 AND DUP6 MSTORE SWAP1 MLOAD SWAP2 SWAP4 SWAP3 DUP8 AND SWAP3 PUSH32 0xDDF252AD1BE2C89B69C2B068FC378DAA952BA7F163C4A11628F55A4DF523B3EF SWAP3 SWAP1 DUP2 SWAP1 SUB SWAP1 SWAP2 ADD SWAP1 LOG3 PUSH20 0xFFFFFFFFFFFFFFFFFFFFFFFFFFFFFFFFFFFFFFFF DUP1 DUP5 AND PUSH1 0x0 SWAP1 DUP2 MSTORE PUSH1 0x5 PUSH1 0x20 MSTORE PUSH1 0x40 DUP1 DUP3 KECCAK256 SLOAD DUP6 DUP5 AND DUP4 MSTORE SWAP2 KECCAK256 SLOAD PUSH2 0xDF0 SWAP3 SWAP2 DUP3 AND SWAP2 AND DUP4 PUSH2 0x230F JUMP JUMPDEST PUSH1 0x0 DUP3 DUP3 ADD DUP4 DUP2 LT ISZERO PUSH2 0x12B5 JUMPI PUSH1 0x40 DUP1 MLOAD PUSH32 0x8C379A000000000000000000000000000000000000000000000000000000000 DUP2 MSTORE PUSH1 0x20 PUSH1 0x4 DUP3 ADD MSTORE PUSH1 0x1B PUSH1 0x24 DUP3 ADD MSTORE PUSH32 0x536166654D6174683A206164646974696F6E206F766572666C6F770000000000 PUSH1 0x44 DUP3 ADD MSTORE SWAP1 MLOAD SWAP1 DUP2 SWAP1 SUB PUSH1 0x64 ADD SWAP1 REVERT JUMPDEST PUSH1 0x0 DUP3 PUSH2 0x21E0 JUMPI POP PUSH1 0x0 PUSH2 0x884 JUMP JUMPDEST DUP3 DUP3 MUL DUP3 DUP5 DUP3 DUP2 PUSH2 0x21ED JUMPI INVALID JUMPDEST DIV EQ PUSH2 0x12B5 JUMPI PUSH1 0x40 MLOAD PUSH32 0x8C379A000000000000000000000000000000000000000000000000000000000 DUP2 MSTORE PUSH1 0x4 ADD DUP1 DUP1 PUSH1 0x20 ADD DUP3 DUP2 SUB DUP3 MSTORE PUSH1 0x21 DUP2 MSTORE PUSH1 0x20 ADD DUP1 PUSH2 0x2B87 PUSH1 0x21 SWAP2 CODECOPY PUSH1 0x40 ADD SWAP2 POP POP PUSH1 0x40 MLOAD DUP1 SWAP2 SUB SWAP1 REVERT JUMPDEST PUSH1 0x0 PUSH2 0x12B5 DUP4 DUP4 PUSH1 0x40 MLOAD DUP1 PUSH1 0x40 ADD PUSH1 0x40 MSTORE DUP1 PUSH1 0x1A DUP2 MSTORE PUSH1 0x20 ADD PUSH32 0x536166654D6174683A206469766973696F6E206279207A65726F000000000000 DUP2 MSTORE POP PUSH2 0x260E JUMP JUMPDEST PUSH1 0x0 DUP4 DUP4 ADD DUP3 PUSH12 0xFFFFFFFFFFFFFFFFFFFFFFFF DUP1 DUP8 AND SWAP1 DUP4 AND LT ISZERO PUSH2 0x2306 JUMPI PUSH1 0x40 MLOAD PUSH32 0x8C379A000000000000000000000000000000000000000000000000000000000 DUP2 MSTORE PUSH1 0x20 PUSH1 0x4 DUP3 ADD DUP2 DUP2 MSTORE DUP4 MLOAD PUSH1 0x24 DUP5 ADD MSTORE DUP4 MLOAD SWAP1 SWAP3 DUP4 SWAP3 PUSH1 0x44 SWAP1 SWAP2 ADD SWAP2 SWAP1 DUP6 ADD SWAP1 DUP1 DUP4 DUP4 PUSH1 0x0 DUP4 ISZERO PUSH2 0x1DE8 JUMPI DUP2 DUP2 ADD MLOAD DUP4 DUP3 ADD MSTORE PUSH1 0x20 ADD PUSH2 0x1DD0 JUMP JUMPDEST POP SWAP5 SWAP4 POP POP POP POP JUMP JUMPDEST DUP2 PUSH20 0xFFFFFFFFFFFFFFFFFFFFFFFFFFFFFFFFFFFFFFFF AND DUP4 PUSH20 0xFFFFFFFFFFFFFFFFFFFFFFFFFFFFFFFFFFFFFFFF AND EQ ISZERO DUP1 ISZERO PUSH2 0x2359 JUMPI POP PUSH1 0x0 DUP2 PUSH12 0xFFFFFFFFFFFFFFFFFFFFFFFF AND GT JUMPDEST ISZERO PUSH2 0xDF0 JUMPI PUSH20 0xFFFFFFFFFFFFFFFFFFFFFFFFFFFFFFFFFFFFFFFF DUP4 AND ISZERO PUSH2 0x245C JUMPI PUSH20 0xFFFFFFFFFFFFFFFFFFFFFFFFFFFFFFFFFFFFFFFF DUP4 AND PUSH1 0x0 SWAP1 DUP2 MSTORE PUSH1 0x7 PUSH1 0x20 MSTORE PUSH1 0x40 DUP2 KECCAK256 SLOAD PUSH4 0xFFFFFFFF AND SWAP1 DUP2 PUSH2 0x23B3 JUMPI PUSH1 0x0 PUSH2 0x2423 JUMP JUMPDEST PUSH20 0xFFFFFFFFFFFFFFFFFFFFFFFFFFFFFFFFFFFFFFFF DUP6 AND PUSH1 0x0 SWAP1 DUP2 MSTORE PUSH1 0x6 PUSH1 0x20 SWAP1 DUP2 MSTORE PUSH1 0x40 DUP1 DUP4 KECCAK256 PUSH32 0xFFFFFFFFFFFFFFFFFFFFFFFFFFFFFFFFFFFFFFFFFFFFFFFFFFFFFFFFFFFFFFFF DUP7 ADD PUSH4 0xFFFFFFFF AND DUP5 MSTORE SWAP1 SWAP2 MSTORE SWAP1 KECCAK256 SLOAD PUSH5 0x100000000 SWAP1 DIV PUSH12 0xFFFFFFFFFFFFFFFFFFFFFFFF AND JUMPDEST SWAP1 POP PUSH1 0x0 PUSH2 0x244A DUP3 DUP6 PUSH1 0x40 MLOAD DUP1 PUSH1 0x60 ADD PUSH1 0x40 MSTORE DUP1 PUSH1 0x27 DUP2 MSTORE PUSH1 0x20 ADD PUSH2 0x2C5D PUSH1 0x27 SWAP2 CODECOPY PUSH2 0x1E2B JUMP JUMPDEST SWAP1 POP PUSH2 0x2458 DUP7 DUP5 DUP5 DUP5 PUSH2 0x268D JUMP JUMPDEST POP POP POP JUMPDEST PUSH20 0xFFFFFFFFFFFFFFFFFFFFFFFFFFFFFFFFFFFFFFFF DUP3 AND ISZERO PUSH2 0xDF0 JUMPI PUSH20 0xFFFFFFFFFFFFFFFFFFFFFFFFFFFFFFFFFFFFFFFF DUP3 AND PUSH1 0x0 SWAP1 DUP2 MSTORE PUSH1 0x7 PUSH1 0x20 MSTORE PUSH1 0x40 DUP2 KECCAK256 SLOAD PUSH4 0xFFFFFFFF AND SWAP1 DUP2 PUSH2 0x24B1 JUMPI PUSH1 0x0 PUSH2 0x2521 JUMP JUMPDEST PUSH20 0xFFFFFFFFFFFFFFFFFFFFFFFFFFFFFFFFFFFFFFFF DUP5 AND PUSH1 0x0 SWAP1 DUP2 MSTORE PUSH1 0x6 PUSH1 0x20 SWAP1 DUP2 MSTORE PUSH1 0x40 DUP1 DUP4 KECCAK256 PUSH32 0xFFFFFFFFFFFFFFFFFFFFFFFFFFFFFFFFFFFFFFFFFFFFFFFFFFFFFFFFFFFFFFFF DUP7 ADD PUSH4 0xFFFFFFFF AND DUP5 MSTORE SWAP1 SWAP2 MSTORE SWAP1 KECCAK256 SLOAD PUSH5 0x100000000 SWAP1 DIV PUSH12 0xFFFFFFFFFFFFFFFFFFFFFFFF AND JUMPDEST SWAP1 POP PUSH1 0x0 PUSH2 0x2548 DUP3 DUP6 PUSH1 0x40 MLOAD DUP1 PUSH1 0x60 ADD PUSH1 0x40 MSTORE DUP1 PUSH1 0x26 DUP2 MSTORE PUSH1 0x20 ADD PUSH2 0x2C84 PUSH1 0x26 SWAP2 CODECOPY PUSH2 0x2286 JUMP JUMPDEST SWAP1 POP PUSH2 0x163A DUP6 DUP5 DUP5 DUP5 PUSH2 0x268D JUMP JUMPDEST PUSH20 0xFFFFFFFFFFFFFFFFFFFFFFFFFFFFFFFFFFFFFFFF DUP1 DUP4 AND PUSH1 0x0 DUP2 DUP2 MSTORE PUSH1 0x5 PUSH1 0x20 DUP2 DUP2 MSTORE PUSH1 0x40 DUP1 DUP5 KECCAK256 DUP1 SLOAD PUSH1 0x4 DUP5 MSTORE DUP3 DUP7 KECCAK256 SLOAD SWAP5 SWAP1 SWAP4 MSTORE DUP8 DUP8 AND PUSH32 0xFFFFFFFFFFFFFFFFFFFFFFFF0000000000000000000000000000000000000000 DUP5 AND DUP2 OR SWAP1 SWAP2 SSTORE SWAP1 MLOAD SWAP2 SWAP1 SWAP6 AND SWAP5 PUSH12 0xFFFFFFFFFFFFFFFFFFFFFFFF SWAP1 SWAP3 AND SWAP4 SWAP2 SWAP3 DUP6 SWAP3 SWAP2 PUSH32 0x3134E8A2E6D97E929A7E54011EA5485D7D196DD5F0BA4D4EF95803E8E3FC257F SWAP2 SWAP1 LOG4 PUSH2 0x2604 DUP3 DUP5 DUP4 PUSH2 0x230F JUMP JUMPDEST POP POP POP POP JUMP JUMPDEST CHAINID SWAP1 JUMP JUMPDEST PUSH1 0x0 DUP2 DUP4 PUSH2 0x2677 JUMPI PUSH1 0x40 MLOAD PUSH32 0x8C379A000000000000000000000000000000000000000000000000000000000 DUP2 MSTORE PUSH1 0x20 PUSH1 0x4 DUP3 ADD DUP2 DUP2 MSTORE DUP4 MLOAD PUSH1 0x24 DUP5 ADD MSTORE DUP4 MLOAD SWAP1 SWAP3 DUP4 SWAP3 PUSH1 0x44 SWAP1 SWAP2 ADD SWAP2 SWAP1 DUP6 ADD SWAP1 DUP1 DUP4 DUP4 PUSH1 0x0 DUP4 ISZERO PUSH2 0x1DE8 JUMPI DUP2 DUP2 ADD MLOAD DUP4 DUP3 ADD MSTORE PUSH1 0x20 ADD PUSH2 0x1DD0 JUMP JUMPDEST POP PUSH1 0x0 DUP4 DUP6 DUP2 PUSH2 0x2683 JUMPI INVALID JUMPDEST DIV SWAP6 SWAP5 POP POP POP POP POP JUMP JUMPDEST PUSH1 0x0 PUSH2 0x26B1 NUMBER PUSH1 0x40 MLOAD DUP1 PUSH1 0x60 ADD PUSH1 0x40 MSTORE DUP1 PUSH1 0x33 DUP2 MSTORE PUSH1 0x20 ADD PUSH2 0x2AD4 PUSH1 0x33 SWAP2 CODECOPY PUSH2 0x2906 JUMP JUMPDEST SWAP1 POP PUSH1 0x0 DUP5 PUSH4 0xFFFFFFFF AND GT DUP1 ISZERO PUSH2 0x2725 JUMPI POP PUSH20 0xFFFFFFFFFFFFFFFFFFFFFFFFFFFFFFFFFFFFFFFF DUP6 AND PUSH1 0x0 SWAP1 DUP2 MSTORE PUSH1 0x6 PUSH1 0x20 SWAP1 DUP2 MSTORE PUSH1 0x40 DUP1 DUP4 KECCAK256 PUSH4 0xFFFFFFFF PUSH32 0xFFFFFFFFFFFFFFFFFFFFFFFFFFFFFFFFFFFFFFFFFFFFFFFFFFFFFFFFFFFFFFFF DUP10 ADD DUP2 AND DUP6 MSTORE SWAP3 MSTORE SWAP1 SWAP2 KECCAK256 SLOAD DUP3 DUP3 AND SWAP2 AND EQ JUMPDEST ISZERO PUSH2 0x27C4 JUMPI PUSH20 0xFFFFFFFFFFFFFFFFFFFFFFFFFFFFFFFFFFFFFFFF DUP6 AND PUSH1 0x0 SWAP1 DUP2 MSTORE PUSH1 0x6 PUSH1 0x20 SWAP1 DUP2 MSTORE PUSH1 0x40 DUP1 DUP4 KECCAK256 PUSH32 0xFFFFFFFFFFFFFFFFFFFFFFFFFFFFFFFFFFFFFFFFFFFFFFFFFFFFFFFFFFFFFFFF DUP9 ADD PUSH4 0xFFFFFFFF AND DUP5 MSTORE SWAP1 SWAP2 MSTORE SWAP1 KECCAK256 DUP1 SLOAD PUSH32 0xFFFFFFFFFFFFFFFFFFFFFFFFFFFFFFFF000000000000000000000000FFFFFFFF AND PUSH5 0x100000000 PUSH12 0xFFFFFFFFFFFFFFFFFFFFFFFF DUP6 AND MUL OR SWAP1 SSTORE PUSH2 0x28A0 JUMP JUMPDEST PUSH1 0x40 DUP1 MLOAD DUP1 DUP3 ADD DUP3 MSTORE PUSH4 0xFFFFFFFF DUP1 DUP5 AND DUP3 MSTORE PUSH12 0xFFFFFFFFFFFFFFFFFFFFFFFF DUP1 DUP7 AND PUSH1 0x20 DUP1 DUP6 ADD SWAP2 DUP3 MSTORE PUSH20 0xFFFFFFFFFFFFFFFFFFFFFFFFFFFFFFFFFFFFFFFF DUP12 AND PUSH1 0x0 DUP2 DUP2 MSTORE PUSH1 0x6 DUP4 MSTORE DUP8 DUP2 KECCAK256 DUP13 DUP8 AND DUP3 MSTORE DUP4 MSTORE DUP8 DUP2 KECCAK256 SWAP7 MLOAD DUP8 SLOAD SWAP5 MLOAD SWAP1 SWAP6 AND PUSH5 0x100000000 MUL PUSH32 0xFFFFFFFFFFFFFFFFFFFFFFFFFFFFFFFF000000000000000000000000FFFFFFFF SWAP6 DUP8 AND PUSH32 0xFFFFFFFFFFFFFFFFFFFFFFFFFFFFFFFFFFFFFFFFFFFFFFFFFFFFFFFF00000000 SWAP6 DUP7 AND OR SWAP6 SWAP1 SWAP6 AND SWAP5 SWAP1 SWAP5 OR SWAP1 SWAP6 SSTORE SWAP4 DUP3 MSTORE PUSH1 0x7 SWAP1 SWAP4 MSTORE SWAP3 SWAP1 SWAP3 KECCAK256 DUP1 SLOAD PUSH1 0x1 DUP9 ADD SWAP1 SWAP4 AND SWAP3 SWAP1 SWAP2 AND SWAP2 SWAP1 SWAP2 OR SWAP1 SSTORE JUMPDEST PUSH1 0x40 DUP1 MLOAD PUSH12 0xFFFFFFFFFFFFFFFFFFFFFFFF DUP1 DUP7 AND DUP3 MSTORE DUP5 AND PUSH1 0x20 DUP3 ADD MSTORE DUP2 MLOAD PUSH20 0xFFFFFFFFFFFFFFFFFFFFFFFFFFFFFFFFFFFFFFFF DUP9 AND SWAP3 PUSH32 0xDEC2BACDD2F05B59DE34DA9B523DFF8BE42E5E38E818C82FDB0BAE774387A724 SWAP3 DUP3 SWAP1 SUB ADD SWAP1 LOG2 POP POP POP POP POP JUMP JUMPDEST PUSH1 0x0 DUP2 PUSH5 0x100000000 DUP5 LT PUSH2 0x1E23 JUMPI PUSH1 0x40 MLOAD PUSH32 0x8C379A000000000000000000000000000000000000000000000000000000000 DUP2 MSTORE PUSH1 0x20 PUSH1 0x4 DUP3 ADD DUP2 DUP2 MSTORE DUP4 MLOAD PUSH1 0x24 DUP5 ADD MSTORE DUP4 MLOAD SWAP1 SWAP3 DUP4 SWAP3 PUSH1 0x44 SWAP1 SWAP2 ADD SWAP2 SWAP1 DUP6 ADD SWAP1 DUP1 DUP4 DUP4 PUSH1 0x0 DUP4 ISZERO PUSH2 0x1DE8 JUMPI DUP2 DUP2 ADD MLOAD DUP4 DUP3 ADD MSTORE PUSH1 0x20 ADD PUSH2 0x1DD0 JUMP JUMPDEST PUSH1 0x40 DUP1 MLOAD DUP1 DUP3 ADD SWAP1 SWAP2 MSTORE PUSH1 0x0 DUP1 DUP3 MSTORE PUSH1 0x20 DUP3 ADD MSTORE SWAP1 JUMP INVALID JUMPI MSTORE8 SELFBALANCE GASPRICE GASPRICE PUSH17 0x65726D69743A20616D6F756E7420657863 PUSH6 0x656473203936 KECCAK256 PUSH3 0x697473 JUMPI MSTORE8 SELFBALANCE GASPRICE GASPRICE 0x5F PUSH21 0x72616E73666572546F6B656E733A2063616E6E6F74 KECCAK256 PUSH21 0x72616E736665722066726F6D20746865207A65726F KECCAK256 PUSH2 0x6464 PUSH19 0x6573735753473A3A6D696E743A20746F74616C MSTORE8 PUSH22 0x70706C79206578636565647320393620626974735753 SELFBALANCE GASPRICE GASPRICE PUSH20 0x65744D696E7465723A206F6E6C7920746865206D PUSH10 0x6E7465722063616E2063 PUSH9 0x616E67652074686520 PUSH14 0x696E746572206164647265737357 MSTORE8 SELFBALANCE GASPRICE GASPRICE PUSH5 0x656C656761 PUSH21 0x6542795369673A20696E76616C6964207369676E61 PUSH21 0x7572655753473A3A617070726F76653A20616D6F75 PUSH15 0x742065786365656473203936206269 PUSH21 0x735753473A3A7472616E7366657246726F6D3A2074 PUSH19 0x616E7366657220616D6F756E74206578636565 PUSH5 0x7320737065 PUSH15 0x64657220616C6C6F77616E63655753 SELFBALANCE GASPRICE GASPRICE 0x5F PUSH24 0x72697465436865636B706F696E743A20626C6F636B206E75 PUSH14 0x6265722065786365656473203332 KECCAK256 PUSH3 0x697473 JUMPI MSTORE8 SELFBALANCE GASPRICE GASPRICE PUSH5 0x656C656761 PUSH21 0x6542795369673A20696E76616C6964206E6F6E6365 JUMPI MSTORE8 SELFBALANCE GASPRICE GASPRICE 0x5F PUSH21 0x72616E73666572546F6B656E733A2063616E6E6F74 KECCAK256 PUSH21 0x72616E7366657220746F20746865207A65726F2061 PUSH5 0x6472657373 JUMPI MSTORE8 SELFBALANCE GASPRICE GASPRICE PUSH8 0x65745072696F7256 PUSH16 0x7465733A206E6F742079657420646574 PUSH6 0x726D696E6564 MSTORE8 PUSH2 0x6665 0x4D PUSH2 0x7468 GASPRICE KECCAK256 PUSH14 0x756C7469706C69636174696F6E20 PUSH16 0x766572666C6F775753473A3A6D696E74 GASPRICE KECCAK256 PUSH4 0x616E6E6F PUSH21 0x207472616E7366657220746F20746865207A65726F KECCAK256 PUSH2 0x6464 PUSH19 0x6573735753473A3A5F7472616E73666572546F PUSH12 0x656E733A207472616E736665 PUSH19 0x20616D6F756E74206F766572666C6F77735753 SELFBALANCE GASPRICE GASPRICE PUSH14 0x696E743A206F6E6C792074686520 PUSH14 0x696E7465722063616E206D696E74 JUMPI MSTORE8 SELFBALANCE GASPRICE GASPRICE 0x5F PUSH21 0x72616E73666572546F6B656E733A207472616E7366 PUSH6 0x7220616D6F75 PUSH15 0x7420657863656564732062616C616E PUSH4 0x65575347 GASPRICE GASPRICE 0x5F PUSH14 0x6F7665566F7465733A20766F7465 KECCAK256 PUSH2 0x6D6F PUSH22 0x6E7420756E646572666C6F77735753473A3A5F6D6F76 PUSH6 0x566F7465733A KECCAK256 PUSH23 0x6F746520616D6F756E74206F766572666C6F7773575347 GASPRICE GASPRICE PUSH14 0x696E743A207472616E7366657220 PUSH2 0x6D6F PUSH22 0x6E74206F766572666C6F77735753473A3A6D696E743A KECCAK256 PUSH2 0x6D6F PUSH22 0x6E74206578636565647320393620626974735753473A GASPRICE PUSH21 0x72616E736665723A20616D6F756E74206578636565 PUSH5 0x7320393620 PUSH3 0x697473 JUMPI MSTORE8 SELFBALANCE GASPRICE GASPRICE PUSH5 0x656C656761 PUSH21 0x6542795369673A207369676E617475726520657870 PUSH10 0x7265645753473A3A6D69 PUSH15 0x743A206D696E74696E67206E6F7420 PUSH2 0x6C6C PUSH16 0x77656420796574A26469706673582212 KECCAK256 0xB3 0xDD PUSH17 0x24E65B7151BAC9E9E8B5B74238AB807254 SWAP5 DUP3 0x4A 0xA5 PUSH13 0xE1D259197AEF9364736F6C6343 STOP MOD 0xC STOP CALLER JUMPI MSTORE8 SELFBALANCE GASPRICE GASPRICE PUSH4 0x6F6E7374 PUSH19 0x7563746F723A206D696E74696E672063616E20 PUSH16 0x6E6C7920626567696E20616674657220 PUSH5 0x65706C6F79 PUSH14 0x656E740000000000000000000000 "
    }
  }
}